{
  "_format": "hh-sol-artifact-1",
  "contractName": "VotingCampaignContract",
  "sourceName": "contracts/VotingCampaignContract.sol",
  "abi": [
    {
      "inputs": [
        {
          "internalType": "address",
          "name": "_payingToken",
          "type": "address"
        }
      ],
      "stateMutability": "nonpayable",
      "type": "constructor"
    },
    {
      "inputs": [
        {
          "internalType": "address",
          "name": "owner",
          "type": "address"
        }
      ],
      "name": "OwnableInvalidOwner",
      "type": "error"
    },
    {
      "inputs": [
        {
          "internalType": "address",
          "name": "account",
          "type": "address"
        }
      ],
      "name": "OwnableUnauthorizedAccount",
      "type": "error"
    },
    {
      "inputs": [],
      "name": "ReentrancyGuardReentrantCall",
      "type": "error"
    },
    {
      "anonymous": false,
      "inputs": [
        {
          "indexed": true,
          "internalType": "uint256",
          "name": "campaignId",
          "type": "uint256"
        },
        {
          "indexed": false,
          "internalType": "address",
          "name": "newOwner",
          "type": "address"
        }
      ],
      "name": "CampaignOwnershipTransferred",
      "type": "event"
    },
    {
      "anonymous": false,
      "inputs": [
        {
          "indexed": false,
          "internalType": "uint256",
          "name": "cost",
          "type": "uint256"
        }
      ],
      "name": "CostPerVoteUpdate",
      "type": "event"
    },
    {
      "anonymous": false,
      "inputs": [
        {
          "indexed": true,
          "internalType": "uint256",
          "name": "campaignId",
          "type": "uint256"
        }
      ],
      "name": "EndCampaign",
      "type": "event"
    },
    {
      "anonymous": false,
      "inputs": [
        {
          "indexed": true,
          "internalType": "address",
          "name": "previousOwner",
          "type": "address"
        },
        {
          "indexed": true,
          "internalType": "address",
          "name": "newOwner",
          "type": "address"
        }
      ],
      "name": "OwnershipTransferred",
      "type": "event"
    },
    {
      "anonymous": false,
      "inputs": [
        {
          "indexed": true,
          "internalType": "address",
          "name": "token",
          "type": "address"
        }
      ],
      "name": "PayingTokenUpdate",
      "type": "event"
    },
    {
      "anonymous": false,
      "inputs": [
        {
          "indexed": true,
          "internalType": "uint256",
          "name": "votingId",
          "type": "uint256"
        },
        {
          "indexed": true,
          "internalType": "uint256",
          "name": "batchId",
          "type": "uint256"
        },
        {
          "indexed": false,
          "internalType": "uint256[]",
          "name": "voteResults",
          "type": "uint256[]"
        }
      ],
      "name": "UploadBatch",
      "type": "event"
    },
    {
      "anonymous": false,
      "inputs": [
        {
          "indexed": true,
          "internalType": "address",
          "name": "uploader",
          "type": "address"
        },
        {
          "indexed": false,
          "internalType": "bool",
          "name": "isAllowed",
          "type": "bool"
        }
      ],
      "name": "UploaderChange",
      "type": "event"
    },
    {
      "anonymous": false,
      "inputs": [
        {
          "indexed": true,
          "internalType": "address",
          "name": "userAddress",
          "type": "address"
        },
        {
          "indexed": false,
          "internalType": "uint256",
          "name": "balance",
          "type": "uint256"
        }
      ],
      "name": "UserVoteBalanceUpdate",
      "type": "event"
    },
    {
      "anonymous": false,
      "inputs": [
        {
          "indexed": true,
          "internalType": "uint256",
          "name": "campaignId",
          "type": "uint256"
        },
        {
          "indexed": true,
          "internalType": "uint256",
          "name": "batchId",
          "type": "uint256"
        },
        {
          "indexed": false,
          "internalType": "uint256[]",
          "name": "voteResults",
          "type": "uint256[]"
        },
        {
          "indexed": false,
          "internalType": "bytes32",
          "name": "merkleRoot",
          "type": "bytes32"
        }
      ],
      "name": "VoteBatchUploaded",
      "type": "event"
    },
    {
      "anonymous": false,
      "inputs": [
        {
          "indexed": true,
          "internalType": "uint256",
          "name": "campaignId",
          "type": "uint256"
        },
        {
          "indexed": false,
          "internalType": "string",
          "name": "campaignName",
          "type": "string"
        },
        {
          "indexed": false,
          "internalType": "string",
          "name": "metadata",
          "type": "string"
        },
        {
          "indexed": false,
          "internalType": "string[]",
          "name": "options",
          "type": "string[]"
        },
        {
          "indexed": false,
          "internalType": "uint256[]",
          "name": "results",
          "type": "uint256[]"
        },
        {
          "indexed": false,
          "internalType": "bool",
          "name": "isActive",
          "type": "bool"
        }
      ],
      "name": "VoteCampaignChange",
      "type": "event"
    },
    {
      "inputs": [
        {
          "internalType": "string",
          "name": "_campaignName",
          "type": "string"
        },
        {
          "internalType": "string",
          "name": "_metadata",
          "type": "string"
        },
        {
          "internalType": "string[]",
          "name": "_options",
          "type": "string[]"
        }
      ],
      "name": "beginVoteCampaign",
      "outputs": [
        {
          "internalType": "uint256",
          "name": "",
          "type": "uint256"
        }
      ],
      "stateMutability": "nonpayable",
      "type": "function"
    },
    {
      "inputs": [],
      "name": "burnTokens",
      "outputs": [],
      "stateMutability": "nonpayable",
      "type": "function"
    },
    {
      "inputs": [
        {
          "internalType": "uint256",
          "name": "",
          "type": "uint256"
        },
        {
          "internalType": "uint256",
          "name": "",
          "type": "uint256"
        }
      ],
      "name": "campaignBatchIdToMerkleRoot",
      "outputs": [
        {
          "internalType": "bytes32",
          "name": "",
          "type": "bytes32"
        }
      ],
      "stateMutability": "view",
      "type": "function"
    },
    {
      "inputs": [
        {
          "internalType": "uint256",
          "name": "",
          "type": "uint256"
        }
      ],
      "name": "campaignToBatchIds",
      "outputs": [
        {
          "internalType": "uint256",
          "name": "",
          "type": "uint256"
        }
      ],
      "stateMutability": "view",
      "type": "function"
    },
    {
      "inputs": [
        {
          "internalType": "uint256",
          "name": "",
          "type": "uint256"
        },
        {
          "internalType": "bytes32",
          "name": "",
          "type": "bytes32"
        }
      ],
      "name": "campaignVoteHashes",
      "outputs": [
        {
          "internalType": "bool",
          "name": "",
          "type": "bool"
        }
      ],
      "stateMutability": "view",
      "type": "function"
    },
    {
      "inputs": [],
      "name": "costPerVote",
      "outputs": [
        {
          "internalType": "uint256",
          "name": "",
          "type": "uint256"
        }
      ],
      "stateMutability": "view",
      "type": "function"
    },
    {
      "inputs": [
        {
          "internalType": "uint256",
          "name": "campaignId",
          "type": "uint256"
        }
      ],
      "name": "endCampaign",
      "outputs": [],
      "stateMutability": "nonpayable",
      "type": "function"
    },
    {
      "inputs": [
        {
          "internalType": "uint256",
          "name": "campaignId",
          "type": "uint256"
        },
        {
          "internalType": "uint256",
          "name": "batchId",
          "type": "uint256"
        }
      ],
      "name": "getBatchMerkleRoot",
      "outputs": [
        {
          "internalType": "bytes32",
          "name": "",
          "type": "bytes32"
        }
      ],
      "stateMutability": "view",
      "type": "function"
    },
    {
      "inputs": [
        {
          "internalType": "uint256",
          "name": "campaignId",
          "type": "uint256"
        }
      ],
      "name": "getCampaign",
      "outputs": [
        {
          "components": [
            {
              "internalType": "address",
              "name": "owner",
              "type": "address"
            },
            {
              "internalType": "string",
              "name": "campaignName",
              "type": "string"
            },
            {
              "internalType": "string",
              "name": "metadata",
              "type": "string"
            },
            {
              "internalType": "string[]",
              "name": "options",
              "type": "string[]"
            },
            {
              "internalType": "uint256[]",
              "name": "results",
              "type": "uint256[]"
            },
            {
              "internalType": "bool",
              "name": "isActive",
              "type": "bool"
            }
          ],
          "internalType": "struct VotingCampaignContract.VoteCampaign",
          "name": "",
          "type": "tuple"
        }
      ],
      "stateMutability": "view",
      "type": "function"
    },
    {
      "inputs": [
        {
          "internalType": "uint256",
          "name": "campaignId",
          "type": "uint256"
        }
      ],
      "name": "getCampaignResults",
      "outputs": [
        {
          "internalType": "uint256[]",
          "name": "",
          "type": "uint256[]"
        }
      ],
      "stateMutability": "view",
      "type": "function"
    },
    {
      "inputs": [
        {
          "internalType": "address",
          "name": "uploader",
          "type": "address"
        }
      ],
      "name": "getUploader",
      "outputs": [
        {
          "internalType": "bool",
          "name": "",
          "type": "bool"
        }
      ],
      "stateMutability": "view",
      "type": "function"
    },
    {
      "inputs": [],
      "name": "nextCampaignId",
      "outputs": [
        {
          "internalType": "uint256",
          "name": "",
          "type": "uint256"
        }
      ],
      "stateMutability": "view",
      "type": "function"
    },
    {
      "inputs": [],
      "name": "owner",
      "outputs": [
        {
          "internalType": "address",
          "name": "",
          "type": "address"
        }
      ],
      "stateMutability": "view",
      "type": "function"
    },
    {
      "inputs": [],
      "name": "renounceOwnership",
      "outputs": [],
      "stateMutability": "nonpayable",
      "type": "function"
    },
    {
      "inputs": [
        {
          "internalType": "uint256",
          "name": "_cost",
          "type": "uint256"
        }
      ],
      "name": "setCostPerVote",
      "outputs": [],
      "stateMutability": "nonpayable",
      "type": "function"
    },
    {
      "inputs": [
        {
          "internalType": "address",
          "name": "_payingToken",
          "type": "address"
        }
      ],
      "name": "setPayingToken",
      "outputs": [],
      "stateMutability": "nonpayable",
      "type": "function"
    },
    {
      "inputs": [
        {
          "internalType": "address",
          "name": "_newUploader",
          "type": "address"
        },
        {
          "internalType": "bool",
          "name": "_isAllowed",
          "type": "bool"
        }
      ],
      "name": "setUploader",
      "outputs": [],
      "stateMutability": "nonpayable",
      "type": "function"
    },
    {
      "inputs": [],
      "name": "token",
      "outputs": [
        {
          "internalType": "contract IERC20",
          "name": "",
          "type": "address"
        }
      ],
      "stateMutability": "view",
      "type": "function"
    },
    {
      "inputs": [
        {
          "internalType": "uint256",
          "name": "campaignId",
          "type": "uint256"
        },
        {
          "internalType": "address",
          "name": "newOwner",
          "type": "address"
        }
      ],
      "name": "transferCampaignOwnership",
      "outputs": [],
      "stateMutability": "nonpayable",
      "type": "function"
    },
    {
      "inputs": [
        {
          "internalType": "address",
          "name": "newOwner",
          "type": "address"
        }
      ],
      "name": "transferOwnership",
      "outputs": [],
      "stateMutability": "nonpayable",
      "type": "function"
    },
    {
      "inputs": [
        {
          "internalType": "uint256",
          "name": "campaignId",
          "type": "uint256"
        },
        {
          "internalType": "string",
          "name": "_campaignName",
          "type": "string"
        },
        {
          "internalType": "string",
          "name": "_metadata",
          "type": "string"
        }
      ],
      "name": "updateVoteCampaign",
      "outputs": [],
      "stateMutability": "nonpayable",
      "type": "function"
    },
    {
      "inputs": [
        {
          "internalType": "uint256",
          "name": "campaignId",
          "type": "uint256"
        },
        {
          "internalType": "uint256[]",
          "name": "voteResults",
          "type": "uint256[]"
        },
        {
          "internalType": "bytes32",
          "name": "merkleRoot",
          "type": "bytes32"
        }
      ],
      "name": "uploadVoteBatch",
      "outputs": [
        {
          "internalType": "uint256",
          "name": "",
          "type": "uint256"
        },
        {
          "internalType": "uint256",
          "name": "",
          "type": "uint256"
        }
      ],
      "stateMutability": "nonpayable",
      "type": "function"
    },
    {
      "inputs": [
        {
          "internalType": "address",
          "name": "",
          "type": "address"
        }
      ],
      "name": "uploaders",
      "outputs": [
        {
          "internalType": "bool",
          "name": "",
          "type": "bool"
        }
      ],
      "stateMutability": "view",
      "type": "function"
    },
    {
      "inputs": [],
      "name": "userCastVote",
      "outputs": [],
      "stateMutability": "nonpayable",
      "type": "function"
    },
    {
      "inputs": [],
      "name": "userPayforVote",
      "outputs": [],
      "stateMutability": "nonpayable",
      "type": "function"
    },
    {
      "inputs": [
        {
          "internalType": "address",
          "name": "",
          "type": "address"
        }
      ],
      "name": "userVoteBalance",
      "outputs": [
        {
          "internalType": "uint256",
          "name": "",
          "type": "uint256"
        }
      ],
      "stateMutability": "view",
      "type": "function"
    },
    {
      "inputs": [
        {
          "internalType": "uint256",
          "name": "",
          "type": "uint256"
        }
      ],
      "name": "voteCampaigns",
      "outputs": [
        {
          "internalType": "address",
          "name": "owner",
          "type": "address"
        },
        {
          "internalType": "string",
          "name": "campaignName",
          "type": "string"
        },
        {
          "internalType": "string",
          "name": "metadata",
          "type": "string"
        },
        {
          "internalType": "bool",
          "name": "isActive",
          "type": "bool"
        }
      ],
      "stateMutability": "view",
      "type": "function"
    },
    {
      "stateMutability": "payable",
      "type": "receive"
    }
  ],
  "bytecode": "0x60806040523480156200001157600080fd5b5060405162004879380380620048798339818101604052810190620000379190620002f2565b33600073ffffffffffffffffffffffffffffffffffffffff168173ffffffffffffffffffffffffffffffffffffffff1603620000ad5760006040517f1e4fbdf7000000000000000000000000000000000000000000000000000000008152600401620000a4919062000335565b60405180910390fd5b620000be81620001c460201b60201c565b506001808190555080600360006101000a81548173ffffffffffffffffffffffffffffffffffffffff021916908373ffffffffffffffffffffffffffffffffffffffff160217905550600360009054906101000a900473ffffffffffffffffffffffffffffffffffffffff1673ffffffffffffffffffffffffffffffffffffffff1663313ce5676040518163ffffffff1660e01b8152600401602060405180830381865afa15801562000175573d6000803e3d6000fd5b505050506040513d601f19601f820116820180604052508101906200019b919062000390565b600a620001a991906200054f565b600a620001b79190620005a0565b60048190555050620005eb565b60008060009054906101000a900473ffffffffffffffffffffffffffffffffffffffff169050816000806101000a81548173ffffffffffffffffffffffffffffffffffffffff021916908373ffffffffffffffffffffffffffffffffffffffff1602179055508173ffffffffffffffffffffffffffffffffffffffff168173ffffffffffffffffffffffffffffffffffffffff167f8be0079c531659141344cd1fd0a4f28419497f9722a3daafe3b4186f6b6457e060405160405180910390a35050565b600080fd5b600073ffffffffffffffffffffffffffffffffffffffff82169050919050565b6000620002ba826200028d565b9050919050565b620002cc81620002ad565b8114620002d857600080fd5b50565b600081519050620002ec81620002c1565b92915050565b6000602082840312156200030b576200030a62000288565b5b60006200031b84828501620002db565b91505092915050565b6200032f81620002ad565b82525050565b60006020820190506200034c600083018462000324565b92915050565b600060ff82169050919050565b6200036a8162000352565b81146200037657600080fd5b50565b6000815190506200038a816200035f565b92915050565b600060208284031215620003a957620003a862000288565b5b6000620003b98482850162000379565b91505092915050565b7f4e487b7100000000000000000000000000000000000000000000000000000000600052601160045260246000fd5b60008160011c9050919050565b6000808291508390505b60018511156200045057808604811115620004285762000427620003c2565b5b6001851615620004385780820291505b80810290506200044885620003f1565b945062000408565b94509492505050565b6000826200046b57600190506200053e565b816200047b57600090506200053e565b81600181146200049457600281146200049f57620004d5565b60019150506200053e565b60ff841115620004b457620004b3620003c2565b5b8360020a915084821115620004ce57620004cd620003c2565b5b506200053e565b5060208310610133831016604e8410600b84101617156200050f5782820a905083811115620005095762000508620003c2565b5b6200053e565b6200051e8484846001620003fe565b92509050818404811115620005385762000537620003c2565b5b81810290505b9392505050565b6000819050919050565b60006200055c8262000545565b9150620005698362000352565b9250620005987fffffffffffffffffffffffffffffffffffffffffffffffffffffffffffffffff848462000459565b905092915050565b6000620005ad8262000545565b9150620005ba8362000545565b9250828202620005ca8162000545565b91508282048414831517620005e457620005e3620003c2565b5b5092915050565b61427e80620005fb6000396000f3fe6080604052600436106101a05760003560e01c8063a78a52c7116100ec578063d77039611161008a578063eb93348d11610064578063eb93348d1461061b578063edce4f6e14610658578063f2fde38b14610698578063fc0c546a146106c1576101e0565b8063d77039611461059e578063dd0408ae146105db578063e67b6d0914610604576101e0565b8063b8ece3ea116100c6578063b8ece3ea146104d0578063c8b1467a146104e7578063cd9fbcb014610524578063cdd599f714610561576101e0565b8063a78a52c71461043f578063aa83be031461047c578063b2d73213146104a5576101e0565b806363968e19116101595780637ca26bf0116101335780637ca26bf01461037057806384439fbf146103ae5780638da5cb5b146103eb578063a69d3df814610416576101e0565b806363968e19146102f1578063715018a61461032e5780637903a75614610345576101e0565b806308003f78146101e55780630848818b146101fc57806319598a68146102255780634feedaa11461024e5780635598f8cc146102775780635d6e45fc146102b4576101e0565b366101e0576040517f08c379a00000000000000000000000000000000000000000000000000000000081526004016101d790612502565b60405180910390fd5b600080fd5b3480156101f157600080fd5b506101fa6106ec565b005b34801561020857600080fd5b50610223600480360381019061021e9190612594565b610950565b005b34801561023157600080fd5b5061024c600480360381019061024791906125f9565b610a50565b005b34801561025a57600080fd5b506102756004803603810190610270919061266f565b610b72565b005b34801561028357600080fd5b5061029e600480360381019061029991906126af565b610d1a565b6040516102ab91906129a8565b60405180910390f35b3480156102c057600080fd5b506102db60048036038101906102d69190612a85565b61100d565b6040516102e89190612b48565b60405180910390f35b3480156102fd57600080fd5b5061031860048036038101906103139190612594565b6112f4565b6040516103259190612b72565b60405180910390f35b34801561033a57600080fd5b50610343611314565b005b34801561035157600080fd5b5061035a611328565b6040516103679190612b48565b60405180910390f35b34801561037c57600080fd5b5061039760048036038101906103929190612c19565b61132e565b6040516103a5929190612c8d565b60405180910390f35b3480156103ba57600080fd5b506103d560048036038101906103d09190612cb6565b6116b3565b6040516103e29190612d05565b60405180910390f35b3480156103f757600080fd5b506104006116d8565b60405161040d9190612d2f565b60405180910390f35b34801561042257600080fd5b5061043d60048036038101906104389190612d4a565b611701565b005b34801561044b57600080fd5b5061046660048036038101906104619190612594565b611869565b6040516104739190612b72565b60405180910390f35b34801561048857600080fd5b506104a3600480360381019061049e91906126af565b6118bf565b005b3480156104b157600080fd5b506104ba61194b565b6040516104c79190612b48565b60405180910390f35b3480156104dc57600080fd5b506104e5611951565b005b3480156104f357600080fd5b5061050e60048036038101906105099190612594565b611ab9565b60405161051b9190612b48565b60405180910390f35b34801561053057600080fd5b5061054b600480360381019061054691906126af565b611ad1565b6040516105589190612e4e565b60405180910390f35b34801561056d57600080fd5b5061058860048036038101906105839190612cb6565b611b3f565b6040516105959190612d05565b60405180910390f35b3480156105aa57600080fd5b506105c560048036038101906105c091906126af565b611b6e565b6040516105d29190612b48565b60405180910390f35b3480156105e757600080fd5b5061060260048036038101906105fd91906126af565b611b86565b005b34801561061057600080fd5b50610619611c8b565b005b34801561062757600080fd5b50610642600480360381019061063d9190612e70565b611f46565b60405161064f9190612b72565b60405180910390f35b34801561066457600080fd5b5061067f600480360381019061067a91906126af565b611f75565b60405161068f9493929190612ee9565b60405180910390f35b3480156106a457600080fd5b506106bf60048036038101906106ba9190612594565b6120e2565b005b3480156106cd57600080fd5b506106d6612168565b6040516106e39190612f9b565b60405180910390f35b6106f461218e565b6000600360009054906101000a900473ffffffffffffffffffffffffffffffffffffffff1673ffffffffffffffffffffffffffffffffffffffff166370a08231306040518263ffffffff1660e01b81526004016107519190612d2f565b602060405180830381865afa15801561076e573d6000803e3d6000fd5b505050506040513d601f19601f820116820180604052508101906107929190612fcb565b10156107d3576040517f08c379a00000000000000000000000000000000000000000000000000000000081526004016107ca9061306a565b60405180910390fd5b600360009054906101000a900473ffffffffffffffffffffffffffffffffffffffff1673ffffffffffffffffffffffffffffffffffffffff1663a9059cbb6000600360009054906101000a900473ffffffffffffffffffffffffffffffffffffffff1673ffffffffffffffffffffffffffffffffffffffff166370a08231306040518263ffffffff1660e01b815260040161086e9190612d2f565b602060405180830381865afa15801561088b573d6000803e3d6000fd5b505050506040513d601f19601f820116820180604052508101906108af9190612fcb565b6040518363ffffffff1660e01b81526004016108cc92919061308a565b6020604051808303816000875af11580156108eb573d6000803e3d6000fd5b505050506040513d601f19601f8201168201806040525081019061090f91906130c8565b61094e576040517f08c379a000000000000000000000000000000000000000000000000000000000815260040161094590613167565b60405180910390fd5b565b61095861218e565b80600073ffffffffffffffffffffffffffffffffffffffff168173ffffffffffffffffffffffffffffffffffffffff16036109c8576040517f08c379a00000000000000000000000000000000000000000000000000000000081526004016109bf906131d3565b60405180910390fd5b81600360006101000a81548173ffffffffffffffffffffffffffffffffffffffff021916908373ffffffffffffffffffffffffffffffffffffffff1602179055508173ffffffffffffffffffffffffffffffffffffffff167f8f4e690748c37d04b49366dd72f716198561e71398efacb0f9a73750ed66187760405160405180910390a25050565b610a5861218e565b81600073ffffffffffffffffffffffffffffffffffffffff168173ffffffffffffffffffffffffffffffffffffffff1603610ac8576040517f08c379a0000000000000000000000000000000000000000000000000000000008152600401610abf906131d3565b60405180910390fd5b81600660008573ffffffffffffffffffffffffffffffffffffffff1673ffffffffffffffffffffffffffffffffffffffff16815260200190815260200160002060006101000a81548160ff0219169083151502179055508273ffffffffffffffffffffffffffffffffffffffff167f1bb58ed64492775de333cd865a95263ea1c8d384e6ca96a70b17ab8528fb8d3083604051610b659190612b72565b60405180910390a2505050565b813373ffffffffffffffffffffffffffffffffffffffff166009600083815260200190815260200160002060000160009054906101000a900473ffffffffffffffffffffffffffffffffffffffff1673ffffffffffffffffffffffffffffffffffffffff1614610c17576040517f08c379a0000000000000000000000000000000000000000000000000000000008152600401610c0e90613265565b60405180910390fd5b81600073ffffffffffffffffffffffffffffffffffffffff168173ffffffffffffffffffffffffffffffffffffffff1603610c87576040517f08c379a0000000000000000000000000000000000000000000000000000000008152600401610c7e906131d3565b60405180910390fd5b826009600086815260200190815260200160002060000160006101000a81548173ffffffffffffffffffffffffffffffffffffffff021916908373ffffffffffffffffffffffffffffffffffffffff160217905550837f778737eb47268bcd7e31163e24b7253e7e9a42a391caa606c0fd6e734b7f4f0e84604051610d0c9190612d2f565b60405180910390a250505050565b610d22612330565b600960008381526020019081526020016000206040518060c00160405290816000820160009054906101000a900473ffffffffffffffffffffffffffffffffffffffff1673ffffffffffffffffffffffffffffffffffffffff1673ffffffffffffffffffffffffffffffffffffffff168152602001600182018054610da6906132b4565b80601f0160208091040260200160405190810160405280929190818152602001828054610dd2906132b4565b8015610e1f5780601f10610df457610100808354040283529160200191610e1f565b820191906000526020600020905b815481529060010190602001808311610e0257829003601f168201915b50505050508152602001600282018054610e38906132b4565b80601f0160208091040260200160405190810160405280929190818152602001828054610e64906132b4565b8015610eb15780601f10610e8657610100808354040283529160200191610eb1565b820191906000526020600020905b815481529060010190602001808311610e9457829003601f168201915b5050505050815260200160038201805480602002602001604051908101604052809291908181526020016000905b82821015610f8b578382906000526020600020018054610efe906132b4565b80601f0160208091040260200160405190810160405280929190818152602001828054610f2a906132b4565b8015610f775780601f10610f4c57610100808354040283529160200191610f77565b820191906000526020600020905b815481529060010190602001808311610f5a57829003601f168201915b505050505081526020019060010190610edf565b50505050815260200160048201805480602002602001604051908101604052809291908181526020018280548015610fe257602002820191906000526020600020905b815481526020019060010190808311610fce575b505050505081526020016005820160009054906101000a900460ff1615151515815250509050919050565b60006001838390501180156110255750600583839050105b611064576040517f08c379a000000000000000000000000000000000000000000000000000000000815260040161105b90613357565b60405180910390fd5b60008383905067ffffffffffffffff81111561108357611082613377565b5b6040519080825280602002602001820160405280156110b15781602001602082028036833780820191505090505b5090506040518060c001604052803373ffffffffffffffffffffffffffffffffffffffff16815260200189898080601f016020809104026020016040519081016040528093929190818152602001838380828437600081840152601f19601f82011690508083019250505050505050815260200187878080601f016020809104026020016040519081016040528093929190818152602001838380828437600081840152601f19601f82011690508083019250505050505050815260200185859061117c919061355a565b81526020018281526020016001151581525060096000600254815260200190815260200160002060008201518160000160006101000a81548173ffffffffffffffffffffffffffffffffffffffff021916908373ffffffffffffffffffffffffffffffffffffffff16021790555060208201518160010190816111ff9190613711565b5060408201518160020190816112159190613711565b50606082015181600301908051906020019061123292919061237e565b50608082015181600401908051906020019061124f9291906123d7565b5060a08201518160050160006101000a81548160ff0219169083151502179055509050506002600081548092919061128690613812565b91905055506000600160025461129c919061385a565b9050807fc7a68a6ca7daa0b8e957730d3e53fef6d3a09891313c9ad6b3db788e6c73b7558a8a8a8a8a8a8960016040516112dd989796959493929190613a0e565b60405180910390a280925050509695505050505050565b60066020528060005260406000206000915054906101000a900460ff1681565b61131c61218e565b6113266000612215565b565b60025481565b600080600660003373ffffffffffffffffffffffffffffffffffffffff1673ffffffffffffffffffffffffffffffffffffffff16815260200190815260200160002060009054906101000a900460ff166113bd576040517f08c379a00000000000000000000000000000000000000000000000000000000081526004016113b490613af5565b60405180910390fd5b856009600082815260200190815260200160002060050160009054906101000a900460ff16611421576040517f08c379a000000000000000000000000000000000000000000000000000000000815260040161141890613b87565b60405180910390fd5b868460086000838152602001908152602001600020600082815260200190815260200160002060009054906101000a900460ff1615611495576040517f08c379a000000000000000000000000000000000000000000000000000000000815260040161148c90613bf3565b60405180910390fd5b600960008a81526020019081526020016000206003018054905088889050146114f3576040517f08c379a00000000000000000000000000000000000000000000000000000000081526004016114ea90613c5f565b60405180910390fd5b6001600860008b8152602001908152602001600020600088815260200190815260200160002060006101000a81548160ff02191690831515021790555060005b888890508110156115ad5788888281811061155157611550613c7f565b5b90506020020135600960008c815260200190815260200160002060040182815481106115805761157f613c7f565b5b9060005260206000200160008282546115999190613cae565b925050819055508080600101915050611533565b5085600a60008b81526020019081526020016000206000600760008d8152602001908152602001600020548152602001908152602001600020819055506001600760008b8152602001908152602001600020600082825461160e9190613cae565b925050819055506001600760008b815260200190815260200160002054611635919061385a565b897fcd6372a4f500f9b6e2ad8fb414cac1d7477645944e807c21ade1172e4149e281600960008d815260200190815260200160002060040160405161167a9190613db8565b60405180910390a3886001600760008c8152602001908152602001600020546116a3919061385a565b9450945050505094509492505050565b600a602052816000526040600020602052806000526040600020600091509150505481565b60008060009054906101000a900473ffffffffffffffffffffffffffffffffffffffff16905090565b843373ffffffffffffffffffffffffffffffffffffffff166009600083815260200190815260200160002060000160009054906101000a900473ffffffffffffffffffffffffffffffffffffffff1673ffffffffffffffffffffffffffffffffffffffff16146117a6576040517f08c379a000000000000000000000000000000000000000000000000000000000815260040161179d90613265565b60405180910390fd5b84846009600089815260200190815260200160002060010191826117cb929190613de5565b5082826009600089815260200190815260200160002060020191826117f1929190613de5565b50857fc7a68a6ca7daa0b8e957730d3e53fef6d3a09891313c9ad6b3db788e6c73b75586868686600960008d8152602001908152602001600020600301600960008e815260200190815260200160002060040160016040516118599796959493929190613fee565b60405180910390a2505050505050565b6000600660008373ffffffffffffffffffffffffffffffffffffffff1673ffffffffffffffffffffffffffffffffffffffff16815260200190815260200160002060009054906101000a900460ff169050919050565b6118c761218e565b6000811161190a576040517f08c379a0000000000000000000000000000000000000000000000000000000008152600401611901906140ad565b60405180910390fd5b806004819055507f2edc756445b6147fd47828be885ce43ef39284b379a4143d4c4e5e228b24a479816040516119409190612b48565b60405180910390a150565b60045481565b6000600560003373ffffffffffffffffffffffffffffffffffffffff1673ffffffffffffffffffffffffffffffffffffffff16815260200190815260200160002054116119d3576040517f08c379a00000000000000000000000000000000000000000000000000000000081526004016119ca90614119565b60405180910390fd5b6001600560003373ffffffffffffffffffffffffffffffffffffffff1673ffffffffffffffffffffffffffffffffffffffff1681526020019081526020016000206000828254611a23919061385a565b925050819055503373ffffffffffffffffffffffffffffffffffffffff167f391d07da191aa81acc3371c96a318c461741eedf7df0109c33ced48fbfb3dee5600560003373ffffffffffffffffffffffffffffffffffffffff1673ffffffffffffffffffffffffffffffffffffffff16815260200190815260200160002054604051611aaf9190612b48565b60405180910390a2565b60056020528060005260406000206000915090505481565b606060096000838152602001908152602001600020600401805480602002602001604051908101604052809291908181526020018280548015611b3357602002820191906000526020600020905b815481526020019060010190808311611b1f575b50505050509050919050565b6000600a6000848152602001908152602001600020600083815260200190815260200160002054905092915050565b60076020528060005260406000206000915090505481565b803373ffffffffffffffffffffffffffffffffffffffff166009600083815260200190815260200160002060000160009054906101000a900473ffffffffffffffffffffffffffffffffffffffff1673ffffffffffffffffffffffffffffffffffffffff1614611c2b576040517f08c379a0000000000000000000000000000000000000000000000000000000008152600401611c2290613265565b60405180910390fd5b60006009600084815260200190815260200160002060050160006101000a81548160ff021916908315150217905550817fabe114b53dd5fb550b3995d0a6366071f72e7d7853f5a3f9eb418defcbb643ec60405160405180910390a25050565b60045480600360009054906101000a900473ffffffffffffffffffffffffffffffffffffffff1673ffffffffffffffffffffffffffffffffffffffff166370a08231336040518263ffffffff1660e01b8152600401611cea9190612d2f565b602060405180830381865afa158015611d07573d6000803e3d6000fd5b505050506040513d601f19601f82011682018060405250810190611d2b9190612fcb565b1015611d6c576040517f08c379a0000000000000000000000000000000000000000000000000000000008152600401611d6390614185565b60405180910390fd5b611d746122d9565b600360009054906101000a900473ffffffffffffffffffffffffffffffffffffffff1673ffffffffffffffffffffffffffffffffffffffff166323b872dd33306004546040518463ffffffff1660e01b8152600401611dd5939291906141a5565b6020604051808303816000875af1158015611df4573d6000803e3d6000fd5b505050506040513d601f19601f82011682018060405250810190611e1891906130c8565b611e57576040517f08c379a0000000000000000000000000000000000000000000000000000000008152600401611e4e90614228565b60405180910390fd5b6001600560003373ffffffffffffffffffffffffffffffffffffffff1673ffffffffffffffffffffffffffffffffffffffff1681526020019081526020016000206000828254611ea79190613cae565b925050819055503373ffffffffffffffffffffffffffffffffffffffff167f391d07da191aa81acc3371c96a318c461741eedf7df0109c33ced48fbfb3dee5600560003373ffffffffffffffffffffffffffffffffffffffff1673ffffffffffffffffffffffffffffffffffffffff16815260200190815260200160002054604051611f339190612b48565b60405180910390a2611f4361231f565b50565b60086020528160005260406000206020528060005260406000206000915091509054906101000a900460ff1681565b60096020528060005260406000206000915090508060000160009054906101000a900473ffffffffffffffffffffffffffffffffffffffff1690806001018054611fbe906132b4565b80601f0160208091040260200160405190810160405280929190818152602001828054611fea906132b4565b80156120375780601f1061200c57610100808354040283529160200191612037565b820191906000526020600020905b81548152906001019060200180831161201a57829003601f168201915b50505050509080600201805461204c906132b4565b80601f0160208091040260200160405190810160405280929190818152602001828054612078906132b4565b80156120c55780601f1061209a576101008083540402835291602001916120c5565b820191906000526020600020905b8154815290600101906020018083116120a857829003601f168201915b5050505050908060050160009054906101000a900460ff16905084565b6120ea61218e565b600073ffffffffffffffffffffffffffffffffffffffff168173ffffffffffffffffffffffffffffffffffffffff160361215c5760006040517f1e4fbdf70000000000000000000000000000000000000000000000000000000081526004016121539190612d2f565b60405180910390fd5b61216581612215565b50565b600360009054906101000a900473ffffffffffffffffffffffffffffffffffffffff1681565b612196612328565b73ffffffffffffffffffffffffffffffffffffffff166121b46116d8565b73ffffffffffffffffffffffffffffffffffffffff1614612213576121d7612328565b6040517f118cdaa700000000000000000000000000000000000000000000000000000000815260040161220a9190612d2f565b60405180910390fd5b565b60008060009054906101000a900473ffffffffffffffffffffffffffffffffffffffff169050816000806101000a81548173ffffffffffffffffffffffffffffffffffffffff021916908373ffffffffffffffffffffffffffffffffffffffff1602179055508173ffffffffffffffffffffffffffffffffffffffff168173ffffffffffffffffffffffffffffffffffffffff167f8be0079c531659141344cd1fd0a4f28419497f9722a3daafe3b4186f6b6457e060405160405180910390a35050565b600260015403612315576040517f3ee5aeb500000000000000000000000000000000000000000000000000000000815260040160405180910390fd5b6002600181905550565b60018081905550565b600033905090565b6040518060c00160405280600073ffffffffffffffffffffffffffffffffffffffff168152602001606081526020016060815260200160608152602001606081526020016000151581525090565b8280548282559060005260206000209081019282156123c6579160200282015b828111156123c55782518290816123b59190613711565b509160200191906001019061239e565b5b5090506123d39190612424565b5090565b828054828255906000526020600020908101928215612413579160200282015b828111156124125782518255916020019190600101906123f7565b5b5090506124209190612448565b5090565b5b80821115612444576000818161243b9190612465565b50600101612425565b5090565b5b80821115612461576000816000905550600101612449565b5090565b508054612471906132b4565b6000825580601f1061248357506124a2565b601f0160209004906000526020600020908101906124a19190612448565b5b50565b600082825260208201905092915050565b7f436f6e747261637420646f6573206e6f74206163636570742045544800000000600082015250565b60006124ec601c836124a5565b91506124f7826124b6565b602082019050919050565b6000602082019050818103600083015261251b816124df565b9050919050565b6000604051905090565b600080fd5b600080fd5b600073ffffffffffffffffffffffffffffffffffffffff82169050919050565b600061256182612536565b9050919050565b61257181612556565b811461257c57600080fd5b50565b60008135905061258e81612568565b92915050565b6000602082840312156125aa576125a961252c565b5b60006125b88482850161257f565b91505092915050565b60008115159050919050565b6125d6816125c1565b81146125e157600080fd5b50565b6000813590506125f3816125cd565b92915050565b600080604083850312156126105761260f61252c565b5b600061261e8582860161257f565b925050602061262f858286016125e4565b9150509250929050565b6000819050919050565b61264c81612639565b811461265757600080fd5b50565b60008135905061266981612643565b92915050565b600080604083850312156126865761268561252c565b5b60006126948582860161265a565b92505060206126a58582860161257f565b9150509250929050565b6000602082840312156126c5576126c461252c565b5b60006126d38482850161265a565b91505092915050565b6126e581612556565b82525050565b600081519050919050565b600082825260208201905092915050565b60005b8381101561272557808201518184015260208101905061270a565b60008484015250505050565b6000601f19601f8301169050919050565b600061274d826126eb565b61275781856126f6565b9350612767818560208601612707565b61277081612731565b840191505092915050565b600081519050919050565b600082825260208201905092915050565b6000819050602082019050919050565b60006127b38383612742565b905092915050565b6000602082019050919050565b60006127d38261277b565b6127dd8185612786565b9350836020820285016127ef85612797565b8060005b8581101561282b578484038952815161280c85826127a7565b9450612817836127bb565b925060208a019950506001810190506127f3565b50829750879550505050505092915050565b600081519050919050565b600082825260208201905092915050565b6000819050602082019050919050565b61287281612639565b82525050565b60006128848383612869565b60208301905092915050565b6000602082019050919050565b60006128a88261283d565b6128b28185612848565b93506128bd83612859565b8060005b838110156128ee5781516128d58882612878565b97506128e083612890565b9250506001810190506128c1565b5085935050505092915050565b612904816125c1565b82525050565b600060c08301600083015161292260008601826126dc565b506020830151848203602086015261293a8282612742565b915050604083015184820360408601526129548282612742565b9150506060830151848203606086015261296e82826127c8565b91505060808301518482036080860152612988828261289d565b91505060a083015161299d60a08601826128fb565b508091505092915050565b600060208201905081810360008301526129c2818461290a565b905092915050565b600080fd5b600080fd5b600080fd5b60008083601f8401126129ef576129ee6129ca565b5b8235905067ffffffffffffffff811115612a0c57612a0b6129cf565b5b602083019150836001820283011115612a2857612a276129d4565b5b9250929050565b60008083601f840112612a4557612a446129ca565b5b8235905067ffffffffffffffff811115612a6257612a616129cf565b5b602083019150836020820283011115612a7e57612a7d6129d4565b5b9250929050565b60008060008060008060608789031215612aa257612aa161252c565b5b600087013567ffffffffffffffff811115612ac057612abf612531565b5b612acc89828a016129d9565b9650965050602087013567ffffffffffffffff811115612aef57612aee612531565b5b612afb89828a016129d9565b9450945050604087013567ffffffffffffffff811115612b1e57612b1d612531565b5b612b2a89828a01612a2f565b92509250509295509295509295565b612b4281612639565b82525050565b6000602082019050612b5d6000830184612b39565b92915050565b612b6c816125c1565b82525050565b6000602082019050612b876000830184612b63565b92915050565b60008083601f840112612ba357612ba26129ca565b5b8235905067ffffffffffffffff811115612bc057612bbf6129cf565b5b602083019150836020820283011115612bdc57612bdb6129d4565b5b9250929050565b6000819050919050565b612bf681612be3565b8114612c0157600080fd5b50565b600081359050612c1381612bed565b92915050565b60008060008060608587031215612c3357612c3261252c565b5b6000612c418782880161265a565b945050602085013567ffffffffffffffff811115612c6257612c61612531565b5b612c6e87828801612b8d565b93509350506040612c8187828801612c04565b91505092959194509250565b6000604082019050612ca26000830185612b39565b612caf6020830184612b39565b9392505050565b60008060408385031215612ccd57612ccc61252c565b5b6000612cdb8582860161265a565b9250506020612cec8582860161265a565b9150509250929050565b612cff81612be3565b82525050565b6000602082019050612d1a6000830184612cf6565b92915050565b612d2981612556565b82525050565b6000602082019050612d446000830184612d20565b92915050565b600080600080600060608688031215612d6657612d6561252c565b5b6000612d748882890161265a565b955050602086013567ffffffffffffffff811115612d9557612d94612531565b5b612da1888289016129d9565b9450945050604086013567ffffffffffffffff811115612dc457612dc3612531565b5b612dd0888289016129d9565b92509250509295509295909350565b600082825260208201905092915050565b6000612dfb8261283d565b612e058185612ddf565b9350612e1083612859565b8060005b83811015612e41578151612e288882612878565b9750612e3383612890565b925050600181019050612e14565b5085935050505092915050565b60006020820190508181036000830152612e688184612df0565b905092915050565b60008060408385031215612e8757612e8661252c565b5b6000612e958582860161265a565b9250506020612ea685828601612c04565b9150509250929050565b6000612ebb826126eb565b612ec581856124a5565b9350612ed5818560208601612707565b612ede81612731565b840191505092915050565b6000608082019050612efe6000830187612d20565b8181036020830152612f108186612eb0565b90508181036040830152612f248185612eb0565b9050612f336060830184612b63565b95945050505050565b6000819050919050565b6000612f61612f5c612f5784612536565b612f3c565b612536565b9050919050565b6000612f7382612f46565b9050919050565b6000612f8582612f68565b9050919050565b612f9581612f7a565b82525050565b6000602082019050612fb06000830184612f8c565b92915050565b600081519050612fc581612643565b92915050565b600060208284031215612fe157612fe061252c565b5b6000612fef84828501612fb6565b91505092915050565b7f496e73756666696369656e7420746f6b656e2062616c616e636520746f20627560008201527f726e000000000000000000000000000000000000000000000000000000000000602082015250565b60006130546022836124a5565b915061305f82612ff8565b604082019050919050565b6000602082019050818103600083015261308381613047565b9050919050565b600060408201905061309f6000830185612d20565b6130ac6020830184612b39565b9392505050565b6000815190506130c2816125cd565b92915050565b6000602082840312156130de576130dd61252c565b5b60006130ec848285016130b3565b91505092915050565b7f546f6b656e207472616e7366657220746f206275726e2061646472657373206660008201527f61696c6564000000000000000000000000000000000000000000000000000000602082015250565b60006131516025836124a5565b915061315c826130f5565b604082019050919050565b6000602082019050818103600083015261318081613144565b9050919050565b7f5a65726f20616464726573730000000000000000000000000000000000000000600082015250565b60006131bd600c836124a5565b91506131c882613187565b602082019050919050565b600060208201905081810360008301526131ec816131b0565b9050919050565b7f4f6e6c792063616d706169676e206f776e65722063616e206d6f64696679206360008201527f616d706169676e20696e666f726d6174696f6e73000000000000000000000000602082015250565b600061324f6034836124a5565b915061325a826131f3565b604082019050919050565b6000602082019050818103600083015261327e81613242565b9050919050565b7f4e487b7100000000000000000000000000000000000000000000000000000000600052602260045260246000fd5b600060028204905060018216806132cc57607f821691505b6020821081036132df576132de613285565b5b50919050565b7f4f7074696f6e73206d757374206265206d6f7265207468616e206f6e6520616e60008201527f6420736d616c6c6572207468616e203500000000000000000000000000000000602082015250565b60006133416030836124a5565b915061334c826132e5565b604082019050919050565b6000602082019050818103600083015261337081613334565b9050919050565b7f4e487b7100000000000000000000000000000000000000000000000000000000600052604160045260246000fd5b6133af82612731565b810181811067ffffffffffffffff821117156133ce576133cd613377565b5b80604052505050565b60006133e1612522565b90506133ed82826133a6565b919050565b600067ffffffffffffffff82111561340d5761340c613377565b5b602082029050602081019050919050565b600080fd5b600067ffffffffffffffff82111561343e5761343d613377565b5b61344782612731565b9050602081019050919050565b82818337600083830152505050565b600061347661347184613423565b6133d7565b9050828152602081018484840111156134925761349161341e565b5b61349d848285613454565b509392505050565b600082601f8301126134ba576134b96129ca565b5b81356134ca848260208601613463565b91505092915050565b60006134e66134e1846133f2565b6133d7565b90508083825260208201905060208402830185811115613509576135086129d4565b5b835b8181101561355057803567ffffffffffffffff81111561352e5761352d6129ca565b5b80860161353b89826134a5565b8552602085019450505060208101905061350b565b5050509392505050565b60006135673684846134d3565b905092915050565b60008190508160005260206000209050919050565b60006020601f8301049050919050565b600082821b905092915050565b6000600883026135d17fffffffffffffffffffffffffffffffffffffffffffffffffffffffffffffffff82613594565b6135db8683613594565b95508019841693508086168417925050509392505050565b600061360e61360961360484612639565b612f3c565b612639565b9050919050565b6000819050919050565b613628836135f3565b61363c61363482613615565b8484546135a1565b825550505050565b600090565b613651613644565b61365c81848461361f565b505050565b5b8181101561368057613675600082613649565b600181019050613662565b5050565b601f8211156136c5576136968161356f565b61369f84613584565b810160208510156136ae578190505b6136c26136ba85613584565b830182613661565b50505b505050565b600082821c905092915050565b60006136e8600019846008026136ca565b1980831691505092915050565b600061370183836136d7565b9150826002028217905092915050565b61371a826126eb565b67ffffffffffffffff81111561373357613732613377565b5b61373d82546132b4565b613748828285613684565b600060209050601f83116001811461377b5760008415613769578287015190505b61377385826136f5565b8655506137db565b601f1984166137898661356f565b60005b828110156137b15784890151825560018201915060208501945060208101905061378c565b868310156137ce57848901516137ca601f8916826136d7565b8355505b6001600288020188555050505b505050505050565b7f4e487b7100000000000000000000000000000000000000000000000000000000600052601160045260246000fd5b600061381d82612639565b91507fffffffffffffffffffffffffffffffffffffffffffffffffffffffffffffffff820361384f5761384e6137e3565b5b600182019050919050565b600061386582612639565b915061387083612639565b9250828203905081811115613888576138876137e3565b5b92915050565b600061389a83856124a5565b93506138a7838584613454565b6138b083612731565b840190509392505050565b600082825260208201905092915050565b6000819050919050565b60006138e283856126f6565b93506138ef838584613454565b6138f883612731565b840190509392505050565b60006139108484846138d6565b90509392505050565b600080fd5b600080fd5b600080fd5b6000808335600160200384360303811261394557613944613923565b5b83810192508235915060208301925067ffffffffffffffff82111561396d5761396c613919565b5b6001820236038313156139835761398261391e565b5b509250929050565b6000602082019050919050565b60006139a483856138bb565b9350836020840285016139b6846138cc565b8060005b878110156139fc5784840389526139d18284613928565b6139dc868284613903565b95506139e78461398b565b935060208b019a5050506001810190506139ba565b50829750879450505050509392505050565b600060a0820190508181036000830152613a29818a8c61388e565b90508181036020830152613a3e81888a61388e565b90508181036040830152613a53818688613998565b90508181036060830152613a678185612df0565b9050613a766080830184612b63565b9998505050505050505050565b7f43616c6c6572206973206e6f7420617574686f72697a656420746f2075706c6f60008201527f6164000000000000000000000000000000000000000000000000000000000000602082015250565b6000613adf6022836124a5565b9150613aea82613a83565b604082019050919050565b60006020820190508181036000830152613b0e81613ad2565b9050919050565b7f566f74696e672063616d706169676e20646f6573206e6f74206578697374206f60008201527f72206973206e6f74206163746976650000000000000000000000000000000000602082015250565b6000613b71602f836124a5565b9150613b7c82613b15565b604082019050919050565b60006020820190508181036000830152613ba081613b64565b9050919050565b7f4475706c69636174656420766f74696e6720726573756c7420666f756e642100600082015250565b6000613bdd601f836124a5565b9150613be882613ba7565b602082019050919050565b60006020820190508181036000830152613c0c81613bd0565b9050919050565b7f496e76616c696420726573756c7473206c656e67746800000000000000000000600082015250565b6000613c496016836124a5565b9150613c5482613c13565b602082019050919050565b60006020820190508181036000830152613c7881613c3c565b9050919050565b7f4e487b7100000000000000000000000000000000000000000000000000000000600052603260045260246000fd5b6000613cb982612639565b9150613cc483612639565b9250828201905080821115613cdc57613cdb6137e3565b5b92915050565b600081549050919050565b60008190508160005260206000209050919050565b60008160001c9050919050565b6000819050919050565b6000613d2c613d2783613d02565b613d0f565b9050919050565b6000613d3f8254613d19565b9050919050565b6000600182019050919050565b6000613d5e82613ce2565b613d688185612ddf565b9350613d7383613ced565b8060005b83811015613dab57613d8882613d33565b613d928882612878565b9750613d9d83613d46565b925050600181019050613d77565b5085935050505092915050565b60006020820190508181036000830152613dd28184613d53565b905092915050565b600082905092915050565b613def8383613dda565b67ffffffffffffffff811115613e0857613e07613377565b5b613e1282546132b4565b613e1d828285613684565b6000601f831160018114613e4c5760008415613e3a578287013590505b613e4485826136f5565b865550613eac565b601f198416613e5a8661356f565b60005b82811015613e8257848901358255600182019150602085019450602081019050613e5d565b86831015613e9f5784890135613e9b601f8916826136d7565b8355505b6001600288020188555050505b50505050505050565b600081549050919050565b60008190508160005260206000209050919050565b60008154613ee2816132b4565b613eec81866126f6565b94506001821660008114613f075760018114613f1d57613f50565b60ff198316865281151560200286019350613f50565b613f268561356f565b60005b83811015613f4857815481890152600182019150602081019050613f29565b808801955050505b50505092915050565b6000613f658383613ed5565b905092915050565b6000600182019050919050565b6000613f8582613eb5565b613f8f81856138bb565b935083602082028501613fa185613ec0565b8060005b85811015613fdc57848403895281613fbd8582613f59565b9450613fc883613f6d565b925060208a01995050600181019050613fa5565b50829750879550505050505092915050565b600060a082019050818103600083015261400981898b61388e565b9050818103602083015261401e81878961388e565b905081810360408301526140328186613f7a565b905081810360608301526140468185613d53565b90506140556080830184612b63565b98975050505050505050565b7f436f7374206d7573742062652067726561746572207468616e20300000000000600082015250565b6000614097601b836124a5565b91506140a282614061565b602082019050919050565b600060208201905081810360008301526140c68161408a565b9050919050565b7f5573657220686173206e6f206368616e636520746f20766f7465000000000000600082015250565b6000614103601a836124a5565b915061410e826140cd565b602082019050919050565b60006020820190508181036000830152614132816140f6565b9050919050565b7f4e6f7420656e6f75676820746f6b656e2062616c616e63650000000000000000600082015250565b600061416f6018836124a5565b915061417a82614139565b602082019050919050565b6000602082019050818103600083015261419e81614162565b9050919050565b60006060820190506141ba6000830186612d20565b6141c76020830185612d20565b6141d46040830184612b39565b949350505050565b7f546f6b656e207472616e73666572206661696c65640000000000000000000000600082015250565b60006142126015836124a5565b915061421d826141dc565b602082019050919050565b6000602082019050818103600083015261424181614205565b905091905056fea2646970667358221220d7f8c53441f24fb01e70562e67a7fba708f497a8defde97a1cb77f6adab5858364736f6c63430008180033",
  "linkReferences": {},
  "deployedLinkReferences": {}
}