{
  "_format": "hh-sol-artifact-1",
  "contractName": "VotingCampaignContract",
  "sourceName": "contracts/VotingCampaignContract.sol",
  "abi": [
    {
      "inputs": [
        {
          "internalType": "address",
          "name": "_payingToken",
          "type": "address"
        }
      ],
      "stateMutability": "nonpayable",
      "type": "constructor"
    },
    {
      "inputs": [
        {
          "internalType": "address",
          "name": "owner",
          "type": "address"
        }
      ],
      "name": "OwnableInvalidOwner",
      "type": "error"
    },
    {
      "inputs": [
        {
          "internalType": "address",
          "name": "account",
          "type": "address"
        }
      ],
      "name": "OwnableUnauthorizedAccount",
      "type": "error"
    },
    {
      "inputs": [],
      "name": "ReentrancyGuardReentrantCall",
      "type": "error"
    },
    {
      "anonymous": false,
      "inputs": [
        {
          "indexed": true,
          "internalType": "uint256",
          "name": "campaignId",
          "type": "uint256"
        },
        {
          "indexed": false,
          "internalType": "address",
          "name": "newOwner",
          "type": "address"
        }
      ],
      "name": "CampaignOwnershipTransferred",
      "type": "event"
    },
    {
      "anonymous": false,
      "inputs": [
        {
          "indexed": false,
          "internalType": "uint256",
          "name": "cost",
          "type": "uint256"
        }
      ],
      "name": "CostPerVoteUpdate",
      "type": "event"
    },
    {
      "anonymous": false,
      "inputs": [
        {
          "indexed": true,
          "internalType": "uint256",
          "name": "campaignId",
          "type": "uint256"
        }
      ],
      "name": "EndCampaign",
      "type": "event"
    },
    {
      "anonymous": false,
      "inputs": [
        {
          "indexed": true,
          "internalType": "address",
          "name": "previousOwner",
          "type": "address"
        },
        {
          "indexed": true,
          "internalType": "address",
          "name": "newOwner",
          "type": "address"
        }
      ],
      "name": "OwnershipTransferred",
      "type": "event"
    },
    {
      "anonymous": false,
      "inputs": [
        {
          "indexed": true,
          "internalType": "address",
          "name": "token",
          "type": "address"
        }
      ],
      "name": "PayingTokenUpdate",
      "type": "event"
    },
    {
      "anonymous": false,
      "inputs": [
        {
          "indexed": true,
          "internalType": "uint256",
          "name": "votingId",
          "type": "uint256"
        },
        {
          "indexed": true,
          "internalType": "uint256",
          "name": "batchId",
          "type": "uint256"
        },
        {
          "indexed": false,
          "internalType": "uint256[]",
          "name": "voteResults",
          "type": "uint256[]"
        }
      ],
      "name": "UploadBatch",
      "type": "event"
    },
    {
      "anonymous": false,
      "inputs": [
        {
          "indexed": true,
          "internalType": "address",
          "name": "uploader",
          "type": "address"
        },
        {
          "indexed": false,
          "internalType": "bool",
          "name": "isAllowed",
          "type": "bool"
        }
      ],
      "name": "UploaderChange",
      "type": "event"
    },
    {
      "anonymous": false,
      "inputs": [
        {
          "indexed": true,
          "internalType": "address",
          "name": "userAddress",
          "type": "address"
        },
        {
          "indexed": false,
          "internalType": "uint256",
          "name": "balance",
          "type": "uint256"
        }
      ],
      "name": "UserVoteBalanceUpdate",
      "type": "event"
    },
    {
      "anonymous": false,
      "inputs": [
        {
          "indexed": true,
          "internalType": "uint256",
          "name": "campaignId",
          "type": "uint256"
        },
        {
          "indexed": true,
          "internalType": "uint256",
          "name": "batchId",
          "type": "uint256"
        },
        {
          "indexed": false,
          "internalType": "uint256[]",
          "name": "voteResults",
          "type": "uint256[]"
        },
        {
          "indexed": false,
          "internalType": "bytes32",
          "name": "merkleRoot",
          "type": "bytes32"
        }
      ],
      "name": "VoteBatchUploaded",
      "type": "event"
    },
    {
      "anonymous": false,
      "inputs": [
        {
          "indexed": true,
          "internalType": "uint256",
          "name": "campaignId",
          "type": "uint256"
        },
        {
          "indexed": false,
          "internalType": "string",
          "name": "campaignName",
          "type": "string"
        },
        {
          "indexed": false,
          "internalType": "string",
          "name": "metadata",
          "type": "string"
        },
        {
          "indexed": false,
          "internalType": "string[]",
          "name": "options",
          "type": "string[]"
        },
        {
          "indexed": false,
          "internalType": "uint256[]",
          "name": "results",
          "type": "uint256[]"
        },
        {
          "indexed": false,
          "internalType": "bool",
          "name": "isActive",
          "type": "bool"
        }
      ],
      "name": "VoteCampaignChange",
      "type": "event"
    },
    {
      "inputs": [
        {
          "internalType": "string",
          "name": "_campaignName",
          "type": "string"
        },
        {
          "internalType": "string",
          "name": "_metadata",
          "type": "string"
        },
        {
          "internalType": "string[]",
          "name": "_options",
          "type": "string[]"
        }
      ],
      "name": "beginVoteCampaign",
      "outputs": [
        {
          "internalType": "uint256",
          "name": "",
          "type": "uint256"
        }
      ],
      "stateMutability": "nonpayable",
      "type": "function"
    },
    {
      "inputs": [],
      "name": "burnTokens",
      "outputs": [],
      "stateMutability": "nonpayable",
      "type": "function"
    },
    {
      "inputs": [
        {
          "internalType": "uint256",
          "name": "",
          "type": "uint256"
        },
        {
          "internalType": "uint256",
          "name": "",
          "type": "uint256"
        }
      ],
      "name": "campaignBatchIdToMerkleRoot",
      "outputs": [
        {
          "internalType": "bytes32",
          "name": "",
          "type": "bytes32"
        }
      ],
      "stateMutability": "view",
      "type": "function"
    },
    {
      "inputs": [
        {
          "internalType": "uint256",
          "name": "",
          "type": "uint256"
        }
      ],
      "name": "campaignToBatchIds",
      "outputs": [
        {
          "internalType": "uint256",
          "name": "",
          "type": "uint256"
        }
      ],
      "stateMutability": "view",
      "type": "function"
    },
    {
      "inputs": [
        {
          "internalType": "uint256",
          "name": "",
          "type": "uint256"
        },
        {
          "internalType": "bytes32",
          "name": "",
          "type": "bytes32"
        }
      ],
      "name": "campaignVoteHashes",
      "outputs": [
        {
          "internalType": "bool",
          "name": "",
          "type": "bool"
        }
      ],
      "stateMutability": "view",
      "type": "function"
    },
    {
      "inputs": [],
      "name": "costPerVote",
      "outputs": [
        {
          "internalType": "uint256",
          "name": "",
          "type": "uint256"
        }
      ],
      "stateMutability": "view",
      "type": "function"
    },
    {
      "inputs": [
        {
          "internalType": "uint256",
          "name": "campaignId",
          "type": "uint256"
        }
      ],
      "name": "endCampaign",
      "outputs": [],
      "stateMutability": "nonpayable",
      "type": "function"
    },
    {
      "inputs": [
        {
          "internalType": "uint256",
          "name": "campaignId",
          "type": "uint256"
        },
        {
          "internalType": "uint256",
          "name": "batchId",
          "type": "uint256"
        }
      ],
      "name": "getBatchMerkleRoot",
      "outputs": [
        {
          "internalType": "bytes32",
          "name": "",
          "type": "bytes32"
        }
      ],
      "stateMutability": "view",
      "type": "function"
    },
    {
      "inputs": [
        {
          "internalType": "uint256",
          "name": "campaignId",
          "type": "uint256"
        }
      ],
      "name": "getCampaign",
      "outputs": [
        {
          "components": [
            {
              "internalType": "address",
              "name": "owner",
              "type": "address"
            },
            {
              "internalType": "string",
              "name": "campaignName",
              "type": "string"
            },
            {
              "internalType": "string",
              "name": "metadata",
              "type": "string"
            },
            {
              "internalType": "string[]",
              "name": "options",
              "type": "string[]"
            },
            {
              "internalType": "uint256[]",
              "name": "results",
              "type": "uint256[]"
            },
            {
              "internalType": "bool",
              "name": "isActive",
              "type": "bool"
            }
          ],
          "internalType": "struct VotingCampaignContract.VoteCampaign",
          "name": "",
          "type": "tuple"
        }
      ],
      "stateMutability": "view",
      "type": "function"
    },
    {
      "inputs": [
        {
          "internalType": "uint256",
          "name": "campaignId",
          "type": "uint256"
        }
      ],
      "name": "getCampaignResults",
      "outputs": [
        {
          "internalType": "uint256[]",
          "name": "",
          "type": "uint256[]"
        }
      ],
      "stateMutability": "view",
      "type": "function"
    },
    {
      "inputs": [],
      "name": "getTokenAndCost",
      "outputs": [
        {
          "internalType": "address",
          "name": "",
          "type": "address"
        },
        {
          "internalType": "uint256",
          "name": "",
          "type": "uint256"
        }
      ],
      "stateMutability": "view",
      "type": "function"
    },
    {
      "inputs": [
        {
          "internalType": "address",
          "name": "uploader",
          "type": "address"
        }
      ],
      "name": "getUploader",
      "outputs": [
        {
          "internalType": "bool",
          "name": "",
          "type": "bool"
        }
      ],
      "stateMutability": "view",
      "type": "function"
    },
    {
      "inputs": [],
      "name": "nextCampaignId",
      "outputs": [
        {
          "internalType": "uint256",
          "name": "",
          "type": "uint256"
        }
      ],
      "stateMutability": "view",
      "type": "function"
    },
    {
      "inputs": [],
      "name": "owner",
      "outputs": [
        {
          "internalType": "address",
          "name": "",
          "type": "address"
        }
      ],
      "stateMutability": "view",
      "type": "function"
    },
    {
      "inputs": [],
      "name": "renounceOwnership",
      "outputs": [],
      "stateMutability": "nonpayable",
      "type": "function"
    },
    {
      "inputs": [
        {
          "internalType": "uint256",
          "name": "_cost",
          "type": "uint256"
        }
      ],
      "name": "setCostPerVote",
      "outputs": [],
      "stateMutability": "nonpayable",
      "type": "function"
    },
    {
      "inputs": [
        {
          "internalType": "address",
          "name": "_payingToken",
          "type": "address"
        }
      ],
      "name": "setPayingToken",
      "outputs": [],
      "stateMutability": "nonpayable",
      "type": "function"
    },
    {
      "inputs": [
        {
          "internalType": "address",
          "name": "_newUploader",
          "type": "address"
        },
        {
          "internalType": "bool",
          "name": "_isAllowed",
          "type": "bool"
        }
      ],
      "name": "setUploader",
      "outputs": [],
      "stateMutability": "nonpayable",
      "type": "function"
    },
    {
      "inputs": [],
      "name": "token",
      "outputs": [
        {
          "internalType": "contract IERC20",
          "name": "",
          "type": "address"
        }
      ],
      "stateMutability": "view",
      "type": "function"
    },
    {
      "inputs": [
        {
          "internalType": "uint256",
          "name": "campaignId",
          "type": "uint256"
        },
        {
          "internalType": "address",
          "name": "newOwner",
          "type": "address"
        }
      ],
      "name": "transferCampaignOwnership",
      "outputs": [],
      "stateMutability": "nonpayable",
      "type": "function"
    },
    {
      "inputs": [
        {
          "internalType": "address",
          "name": "newOwner",
          "type": "address"
        }
      ],
      "name": "transferOwnership",
      "outputs": [],
      "stateMutability": "nonpayable",
      "type": "function"
    },
    {
      "inputs": [
        {
          "internalType": "uint256",
          "name": "campaignId",
          "type": "uint256"
        },
        {
          "internalType": "string",
          "name": "_campaignName",
          "type": "string"
        },
        {
          "internalType": "string",
          "name": "_metadata",
          "type": "string"
        }
      ],
      "name": "updateVoteCampaign",
      "outputs": [],
      "stateMutability": "nonpayable",
      "type": "function"
    },
    {
      "inputs": [
        {
          "internalType": "uint256",
          "name": "campaignId",
          "type": "uint256"
        },
        {
          "internalType": "uint256[]",
          "name": "voteResults",
          "type": "uint256[]"
        },
        {
          "internalType": "bytes32",
          "name": "merkleRoot",
          "type": "bytes32"
        }
      ],
      "name": "uploadVoteBatch",
      "outputs": [
        {
          "internalType": "uint256",
          "name": "",
          "type": "uint256"
        },
        {
          "internalType": "uint256",
          "name": "",
          "type": "uint256"
        }
      ],
      "stateMutability": "nonpayable",
      "type": "function"
    },
    {
      "inputs": [
        {
          "internalType": "address",
          "name": "",
          "type": "address"
        }
      ],
      "name": "uploaders",
      "outputs": [
        {
          "internalType": "bool",
          "name": "",
          "type": "bool"
        }
      ],
      "stateMutability": "view",
      "type": "function"
    },
    {
      "inputs": [],
      "name": "userCastVote",
      "outputs": [],
      "stateMutability": "nonpayable",
      "type": "function"
    },
    {
      "inputs": [],
      "name": "userPayforVote",
      "outputs": [],
      "stateMutability": "nonpayable",
      "type": "function"
    },
    {
      "inputs": [
        {
          "internalType": "address",
          "name": "",
          "type": "address"
        }
      ],
      "name": "userVoteBalance",
      "outputs": [
        {
          "internalType": "uint256",
          "name": "",
          "type": "uint256"
        }
      ],
      "stateMutability": "view",
      "type": "function"
    },
    {
      "inputs": [
        {
          "internalType": "uint256",
          "name": "",
          "type": "uint256"
        }
      ],
      "name": "voteCampaigns",
      "outputs": [
        {
          "internalType": "address",
          "name": "owner",
          "type": "address"
        },
        {
          "internalType": "string",
          "name": "campaignName",
          "type": "string"
        },
        {
          "internalType": "string",
          "name": "metadata",
          "type": "string"
        },
        {
          "internalType": "bool",
          "name": "isActive",
          "type": "bool"
        }
      ],
      "stateMutability": "view",
      "type": "function"
    },
    {
      "stateMutability": "payable",
      "type": "receive"
    }
  ],
  "bytecode": "0x60806040523480156200001157600080fd5b50604051620049a1380380620049a18339818101604052810190620000379190620002f2565b33600073ffffffffffffffffffffffffffffffffffffffff168173ffffffffffffffffffffffffffffffffffffffff1603620000ad5760006040517f1e4fbdf7000000000000000000000000000000000000000000000000000000008152600401620000a4919062000335565b60405180910390fd5b620000be81620001c460201b60201c565b506001808190555080600360006101000a81548173ffffffffffffffffffffffffffffffffffffffff021916908373ffffffffffffffffffffffffffffffffffffffff160217905550600360009054906101000a900473ffffffffffffffffffffffffffffffffffffffff1673ffffffffffffffffffffffffffffffffffffffff1663313ce5676040518163ffffffff1660e01b8152600401602060405180830381865afa15801562000175573d6000803e3d6000fd5b505050506040513d601f19601f820116820180604052508101906200019b919062000390565b600a620001a991906200054f565b600a620001b79190620005a0565b60048190555050620005eb565b60008060009054906101000a900473ffffffffffffffffffffffffffffffffffffffff169050816000806101000a81548173ffffffffffffffffffffffffffffffffffffffff021916908373ffffffffffffffffffffffffffffffffffffffff1602179055508173ffffffffffffffffffffffffffffffffffffffff168173ffffffffffffffffffffffffffffffffffffffff167f8be0079c531659141344cd1fd0a4f28419497f9722a3daafe3b4186f6b6457e060405160405180910390a35050565b600080fd5b600073ffffffffffffffffffffffffffffffffffffffff82169050919050565b6000620002ba826200028d565b9050919050565b620002cc81620002ad565b8114620002d857600080fd5b50565b600081519050620002ec81620002c1565b92915050565b6000602082840312156200030b576200030a62000288565b5b60006200031b84828501620002db565b91505092915050565b6200032f81620002ad565b82525050565b60006020820190506200034c600083018462000324565b92915050565b600060ff82169050919050565b6200036a8162000352565b81146200037657600080fd5b50565b6000815190506200038a816200035f565b92915050565b600060208284031215620003a957620003a862000288565b5b6000620003b98482850162000379565b91505092915050565b7f4e487b7100000000000000000000000000000000000000000000000000000000600052601160045260246000fd5b60008160011c9050919050565b6000808291508390505b60018511156200045057808604811115620004285762000427620003c2565b5b6001851615620004385780820291505b80810290506200044885620003f1565b945062000408565b94509492505050565b6000826200046b57600190506200053e565b816200047b57600090506200053e565b81600181146200049457600281146200049f57620004d5565b60019150506200053e565b60ff841115620004b457620004b3620003c2565b5b8360020a915084821115620004ce57620004cd620003c2565b5b506200053e565b5060208310610133831016604e8410600b84101617156200050f5782820a905083811115620005095762000508620003c2565b5b6200053e565b6200051e8484846001620003fe565b92509050818404811115620005385762000537620003c2565b5b81810290505b9392505050565b6000819050919050565b60006200055c8262000545565b9150620005698362000352565b9250620005987fffffffffffffffffffffffffffffffffffffffffffffffffffffffffffffffff848462000459565b905092915050565b6000620005ad8262000545565b9150620005ba8362000545565b9250828202620005ca8162000545565b91508282048414831517620005e457620005e3620003c2565b5b5092915050565b6143a680620005fb6000396000f3fe6080604052600436106101bb5760003560e01c8063aa83be03116100ec578063d77039611161008a578063eb93348d11610064578063eb93348d14610662578063edce4f6e1461069f578063f2fde38b146106df578063fc0c546a14610708576101fb565b8063d7703961146105e5578063dd0408ae14610622578063e67b6d091461064b576101fb565b8063b8ece3ea116100c6578063b8ece3ea14610517578063c8b1467a1461052e578063cd9fbcb01461056b578063cdd599f7146105a8576101fb565b8063aa83be0314610497578063b2d73213146104c0578063b5dfd4ee146104eb576101fb565b8063715018a61161015957806384439fbf1161013357806384439fbf146103c95780638da5cb5b14610406578063a69d3df814610431578063a78a52c71461045a576101fb565b8063715018a6146103495780637903a756146103605780637ca26bf01461038b576101fb565b80634feedaa1116101955780634feedaa1146102695780635598f8cc146102925780635d6e45fc146102cf57806363968e191461030c576101fb565b806308003f78146102005780630848818b1461021757806319598a6814610240576101fb565b366101fb576040517f08c379a00000000000000000000000000000000000000000000000000000000081526004016101f2906125e8565b60405180910390fd5b600080fd5b34801561020c57600080fd5b50610215610733565b005b34801561022357600080fd5b5061023e6004803603810190610239919061267a565b610997565b005b34801561024c57600080fd5b50610267600480360381019061026291906126df565b610a97565b005b34801561027557600080fd5b50610290600480360381019061028b9190612755565b610bb9565b005b34801561029e57600080fd5b506102b960048036038101906102b49190612795565b610d61565b6040516102c69190612a8e565b60405180910390f35b3480156102db57600080fd5b506102f660048036038101906102f19190612b6b565b611054565b6040516103039190612c2e565b60405180910390f35b34801561031857600080fd5b50610333600480360381019061032e919061267a565b61133b565b6040516103409190612c58565b60405180910390f35b34801561035557600080fd5b5061035e61135b565b005b34801561036c57600080fd5b5061037561136f565b6040516103829190612c2e565b60405180910390f35b34801561039757600080fd5b506103b260048036038101906103ad9190612cff565b611375565b6040516103c0929190612d73565b60405180910390f35b3480156103d557600080fd5b506103f060048036038101906103eb9190612d9c565b6116fa565b6040516103fd9190612deb565b60405180910390f35b34801561041257600080fd5b5061041b61171f565b6040516104289190612e15565b60405180910390f35b34801561043d57600080fd5b5061045860048036038101906104539190612e30565b611748565b005b34801561046657600080fd5b50610481600480360381019061047c919061267a565b6118b0565b60405161048e9190612c58565b60405180910390f35b3480156104a357600080fd5b506104be60048036038101906104b99190612795565b611906565b005b3480156104cc57600080fd5b506104d5611992565b6040516104e29190612c2e565b60405180910390f35b3480156104f757600080fd5b50610500611998565b60405161050e929190612ec5565b60405180910390f35b34801561052357600080fd5b5061052c611a37565b005b34801561053a57600080fd5b506105556004803603810190610550919061267a565b611b9f565b6040516105629190612c2e565b60405180910390f35b34801561057757600080fd5b50610592600480360381019061058d9190612795565b611bb7565b60405161059f9190612f5d565b60405180910390f35b3480156105b457600080fd5b506105cf60048036038101906105ca9190612d9c565b611c25565b6040516105dc9190612deb565b60405180910390f35b3480156105f157600080fd5b5061060c60048036038101906106079190612795565b611c54565b6040516106199190612c2e565b60405180910390f35b34801561062e57600080fd5b5061064960048036038101906106449190612795565b611c6c565b005b34801561065757600080fd5b50610660611d71565b005b34801561066e57600080fd5b5061068960048036038101906106849190612f7f565b61202c565b6040516106969190612c58565b60405180910390f35b3480156106ab57600080fd5b506106c660048036038101906106c19190612795565b61205b565b6040516106d69493929190612ff8565b60405180910390f35b3480156106eb57600080fd5b506107066004803603810190610701919061267a565b6121c8565b005b34801561071457600080fd5b5061071d61224e565b60405161072a91906130aa565b60405180910390f35b61073b612274565b6000600360009054906101000a900473ffffffffffffffffffffffffffffffffffffffff1673ffffffffffffffffffffffffffffffffffffffff166370a08231306040518263ffffffff1660e01b81526004016107989190612e15565b602060405180830381865afa1580156107b5573d6000803e3d6000fd5b505050506040513d601f19601f820116820180604052508101906107d991906130da565b101561081a576040517f08c379a000000000000000000000000000000000000000000000000000000000815260040161081190613179565b60405180910390fd5b600360009054906101000a900473ffffffffffffffffffffffffffffffffffffffff1673ffffffffffffffffffffffffffffffffffffffff1663a9059cbb6000600360009054906101000a900473ffffffffffffffffffffffffffffffffffffffff1673ffffffffffffffffffffffffffffffffffffffff166370a08231306040518263ffffffff1660e01b81526004016108b59190612e15565b602060405180830381865afa1580156108d2573d6000803e3d6000fd5b505050506040513d601f19601f820116820180604052508101906108f691906130da565b6040518363ffffffff1660e01b8152600401610913929190612ec5565b6020604051808303816000875af1158015610932573d6000803e3d6000fd5b505050506040513d601f19601f8201168201806040525081019061095691906131ae565b610995576040517f08c379a000000000000000000000000000000000000000000000000000000000815260040161098c9061324d565b60405180910390fd5b565b61099f612274565b80600073ffffffffffffffffffffffffffffffffffffffff168173ffffffffffffffffffffffffffffffffffffffff1603610a0f576040517f08c379a0000000000000000000000000000000000000000000000000000000008152600401610a06906132b9565b60405180910390fd5b81600360006101000a81548173ffffffffffffffffffffffffffffffffffffffff021916908373ffffffffffffffffffffffffffffffffffffffff1602179055508173ffffffffffffffffffffffffffffffffffffffff167f8f4e690748c37d04b49366dd72f716198561e71398efacb0f9a73750ed66187760405160405180910390a25050565b610a9f612274565b81600073ffffffffffffffffffffffffffffffffffffffff168173ffffffffffffffffffffffffffffffffffffffff1603610b0f576040517f08c379a0000000000000000000000000000000000000000000000000000000008152600401610b06906132b9565b60405180910390fd5b81600660008573ffffffffffffffffffffffffffffffffffffffff1673ffffffffffffffffffffffffffffffffffffffff16815260200190815260200160002060006101000a81548160ff0219169083151502179055508273ffffffffffffffffffffffffffffffffffffffff167f1bb58ed64492775de333cd865a95263ea1c8d384e6ca96a70b17ab8528fb8d3083604051610bac9190612c58565b60405180910390a2505050565b813373ffffffffffffffffffffffffffffffffffffffff166009600083815260200190815260200160002060000160009054906101000a900473ffffffffffffffffffffffffffffffffffffffff1673ffffffffffffffffffffffffffffffffffffffff1614610c5e576040517f08c379a0000000000000000000000000000000000000000000000000000000008152600401610c559061334b565b60405180910390fd5b81600073ffffffffffffffffffffffffffffffffffffffff168173ffffffffffffffffffffffffffffffffffffffff1603610cce576040517f08c379a0000000000000000000000000000000000000000000000000000000008152600401610cc5906132b9565b60405180910390fd5b826009600086815260200190815260200160002060000160006101000a81548173ffffffffffffffffffffffffffffffffffffffff021916908373ffffffffffffffffffffffffffffffffffffffff160217905550837f778737eb47268bcd7e31163e24b7253e7e9a42a391caa606c0fd6e734b7f4f0e84604051610d539190612e15565b60405180910390a250505050565b610d69612416565b600960008381526020019081526020016000206040518060c00160405290816000820160009054906101000a900473ffffffffffffffffffffffffffffffffffffffff1673ffffffffffffffffffffffffffffffffffffffff1673ffffffffffffffffffffffffffffffffffffffff168152602001600182018054610ded9061339a565b80601f0160208091040260200160405190810160405280929190818152602001828054610e199061339a565b8015610e665780601f10610e3b57610100808354040283529160200191610e66565b820191906000526020600020905b815481529060010190602001808311610e4957829003601f168201915b50505050508152602001600282018054610e7f9061339a565b80601f0160208091040260200160405190810160405280929190818152602001828054610eab9061339a565b8015610ef85780601f10610ecd57610100808354040283529160200191610ef8565b820191906000526020600020905b815481529060010190602001808311610edb57829003601f168201915b5050505050815260200160038201805480602002602001604051908101604052809291908181526020016000905b82821015610fd2578382906000526020600020018054610f459061339a565b80601f0160208091040260200160405190810160405280929190818152602001828054610f719061339a565b8015610fbe5780601f10610f9357610100808354040283529160200191610fbe565b820191906000526020600020905b815481529060010190602001808311610fa157829003601f168201915b505050505081526020019060010190610f26565b5050505081526020016004820180548060200260200160405190810160405280929190818152602001828054801561102957602002820191906000526020600020905b815481526020019060010190808311611015575b505050505081526020016005820160009054906101000a900460ff1615151515815250509050919050565b600060018383905011801561106c5750600583839050105b6110ab576040517f08c379a00000000000000000000000000000000000000000000000000000000081526004016110a29061343d565b60405180910390fd5b60008383905067ffffffffffffffff8111156110ca576110c961345d565b5b6040519080825280602002602001820160405280156110f85781602001602082028036833780820191505090505b5090506040518060c001604052803373ffffffffffffffffffffffffffffffffffffffff16815260200189898080601f016020809104026020016040519081016040528093929190818152602001838380828437600081840152601f19601f82011690508083019250505050505050815260200187878080601f016020809104026020016040519081016040528093929190818152602001838380828437600081840152601f19601f8201169050808301925050505050505081526020018585906111c39190613640565b81526020018281526020016001151581525060096000600254815260200190815260200160002060008201518160000160006101000a81548173ffffffffffffffffffffffffffffffffffffffff021916908373ffffffffffffffffffffffffffffffffffffffff160217905550602082015181600101908161124691906137f7565b50604082015181600201908161125c91906137f7565b506060820151816003019080519060200190611279929190612464565b5060808201518160040190805190602001906112969291906124bd565b5060a08201518160050160006101000a81548160ff021916908315150217905550905050600260008154809291906112cd906138f8565b9190505550600060016002546112e39190613940565b9050807fc7a68a6ca7daa0b8e957730d3e53fef6d3a09891313c9ad6b3db788e6c73b7558a8a8a8a8a8a896001604051611324989796959493929190613af4565b60405180910390a280925050509695505050505050565b60066020528060005260406000206000915054906101000a900460ff1681565b611363612274565b61136d60006122fb565b565b60025481565b600080600660003373ffffffffffffffffffffffffffffffffffffffff1673ffffffffffffffffffffffffffffffffffffffff16815260200190815260200160002060009054906101000a900460ff16611404576040517f08c379a00000000000000000000000000000000000000000000000000000000081526004016113fb90613bdb565b60405180910390fd5b856009600082815260200190815260200160002060050160009054906101000a900460ff16611468576040517f08c379a000000000000000000000000000000000000000000000000000000000815260040161145f90613c6d565b60405180910390fd5b868460086000838152602001908152602001600020600082815260200190815260200160002060009054906101000a900460ff16156114dc576040517f08c379a00000000000000000000000000000000000000000000000000000000081526004016114d390613cd9565b60405180910390fd5b600960008a815260200190815260200160002060030180549050888890501461153a576040517f08c379a000000000000000000000000000000000000000000000000000000000815260040161153190613d45565b60405180910390fd5b6001600860008b8152602001908152602001600020600088815260200190815260200160002060006101000a81548160ff02191690831515021790555060005b888890508110156115f45788888281811061159857611597613d65565b5b90506020020135600960008c815260200190815260200160002060040182815481106115c7576115c6613d65565b5b9060005260206000200160008282546115e09190613d94565b92505081905550808060010191505061157a565b5085600a60008b81526020019081526020016000206000600760008d8152602001908152602001600020548152602001908152602001600020819055506001600760008b815260200190815260200160002060008282546116559190613d94565b925050819055506001600760008b81526020019081526020016000205461167c9190613940565b897fcd6372a4f500f9b6e2ad8fb414cac1d7477645944e807c21ade1172e4149e281600960008d81526020019081526020016000206004016040516116c19190613e9e565b60405180910390a3886001600760008c8152602001908152602001600020546116ea9190613940565b9450945050505094509492505050565b600a602052816000526040600020602052806000526040600020600091509150505481565b60008060009054906101000a900473ffffffffffffffffffffffffffffffffffffffff16905090565b843373ffffffffffffffffffffffffffffffffffffffff166009600083815260200190815260200160002060000160009054906101000a900473ffffffffffffffffffffffffffffffffffffffff1673ffffffffffffffffffffffffffffffffffffffff16146117ed576040517f08c379a00000000000000000000000000000000000000000000000000000000081526004016117e49061334b565b60405180910390fd5b8484600960008981526020019081526020016000206001019182611812929190613ecb565b508282600960008981526020019081526020016000206002019182611838929190613ecb565b50857fc7a68a6ca7daa0b8e957730d3e53fef6d3a09891313c9ad6b3db788e6c73b75586868686600960008d8152602001908152602001600020600301600960008e815260200190815260200160002060040160016040516118a097969594939291906140d4565b60405180910390a2505050505050565b6000600660008373ffffffffffffffffffffffffffffffffffffffff1673ffffffffffffffffffffffffffffffffffffffff16815260200190815260200160002060009054906101000a900460ff169050919050565b61190e612274565b60008111611951576040517f08c379a000000000000000000000000000000000000000000000000000000000815260040161194890614193565b60405180910390fd5b806004819055507f2edc756445b6147fd47828be885ce43ef39284b379a4143d4c4e5e228b24a479816040516119879190612c2e565b60405180910390a150565b60045481565b600080600360009054906101000a900473ffffffffffffffffffffffffffffffffffffffff1673ffffffffffffffffffffffffffffffffffffffff166310fe9ae86040518163ffffffff1660e01b8152600401602060405180830381865afa158015611a08573d6000803e3d6000fd5b505050506040513d601f19601f82011682018060405250810190611a2c91906141c8565b600454915091509091565b6000600560003373ffffffffffffffffffffffffffffffffffffffff1673ffffffffffffffffffffffffffffffffffffffff1681526020019081526020016000205411611ab9576040517f08c379a0000000000000000000000000000000000000000000000000000000008152600401611ab090614241565b60405180910390fd5b6001600560003373ffffffffffffffffffffffffffffffffffffffff1673ffffffffffffffffffffffffffffffffffffffff1681526020019081526020016000206000828254611b099190613940565b925050819055503373ffffffffffffffffffffffffffffffffffffffff167f391d07da191aa81acc3371c96a318c461741eedf7df0109c33ced48fbfb3dee5600560003373ffffffffffffffffffffffffffffffffffffffff1673ffffffffffffffffffffffffffffffffffffffff16815260200190815260200160002054604051611b959190612c2e565b60405180910390a2565b60056020528060005260406000206000915090505481565b606060096000838152602001908152602001600020600401805480602002602001604051908101604052809291908181526020018280548015611c1957602002820191906000526020600020905b815481526020019060010190808311611c05575b50505050509050919050565b6000600a6000848152602001908152602001600020600083815260200190815260200160002054905092915050565b60076020528060005260406000206000915090505481565b803373ffffffffffffffffffffffffffffffffffffffff166009600083815260200190815260200160002060000160009054906101000a900473ffffffffffffffffffffffffffffffffffffffff1673ffffffffffffffffffffffffffffffffffffffff1614611d11576040517f08c379a0000000000000000000000000000000000000000000000000000000008152600401611d089061334b565b60405180910390fd5b60006009600084815260200190815260200160002060050160006101000a81548160ff021916908315150217905550817fabe114b53dd5fb550b3995d0a6366071f72e7d7853f5a3f9eb418defcbb643ec60405160405180910390a25050565b60045480600360009054906101000a900473ffffffffffffffffffffffffffffffffffffffff1673ffffffffffffffffffffffffffffffffffffffff166370a08231336040518263ffffffff1660e01b8152600401611dd09190612e15565b602060405180830381865afa158015611ded573d6000803e3d6000fd5b505050506040513d601f19601f82011682018060405250810190611e1191906130da565b1015611e52576040517f08c379a0000000000000000000000000000000000000000000000000000000008152600401611e49906142ad565b60405180910390fd5b611e5a6123bf565b600360009054906101000a900473ffffffffffffffffffffffffffffffffffffffff1673ffffffffffffffffffffffffffffffffffffffff166323b872dd33306004546040518463ffffffff1660e01b8152600401611ebb939291906142cd565b6020604051808303816000875af1158015611eda573d6000803e3d6000fd5b505050506040513d601f19601f82011682018060405250810190611efe91906131ae565b611f3d576040517f08c379a0000000000000000000000000000000000000000000000000000000008152600401611f3490614350565b60405180910390fd5b6001600560003373ffffffffffffffffffffffffffffffffffffffff1673ffffffffffffffffffffffffffffffffffffffff1681526020019081526020016000206000828254611f8d9190613d94565b925050819055503373ffffffffffffffffffffffffffffffffffffffff167f391d07da191aa81acc3371c96a318c461741eedf7df0109c33ced48fbfb3dee5600560003373ffffffffffffffffffffffffffffffffffffffff1673ffffffffffffffffffffffffffffffffffffffff168152602001908152602001600020546040516120199190612c2e565b60405180910390a2612029612405565b50565b60086020528160005260406000206020528060005260406000206000915091509054906101000a900460ff1681565b60096020528060005260406000206000915090508060000160009054906101000a900473ffffffffffffffffffffffffffffffffffffffff16908060010180546120a49061339a565b80601f01602080910402602001604051908101604052809291908181526020018280546120d09061339a565b801561211d5780601f106120f25761010080835404028352916020019161211d565b820191906000526020600020905b81548152906001019060200180831161210057829003601f168201915b5050505050908060020180546121329061339a565b80601f016020809104026020016040519081016040528092919081815260200182805461215e9061339a565b80156121ab5780601f10612180576101008083540402835291602001916121ab565b820191906000526020600020905b81548152906001019060200180831161218e57829003601f168201915b5050505050908060050160009054906101000a900460ff16905084565b6121d0612274565b600073ffffffffffffffffffffffffffffffffffffffff168173ffffffffffffffffffffffffffffffffffffffff16036122425760006040517f1e4fbdf70000000000000000000000000000000000000000000000000000000081526004016122399190612e15565b60405180910390fd5b61224b816122fb565b50565b600360009054906101000a900473ffffffffffffffffffffffffffffffffffffffff1681565b61227c61240e565b73ffffffffffffffffffffffffffffffffffffffff1661229a61171f565b73ffffffffffffffffffffffffffffffffffffffff16146122f9576122bd61240e565b6040517f118cdaa70000000000000000000000000000000000000000000000000000000081526004016122f09190612e15565b60405180910390fd5b565b60008060009054906101000a900473ffffffffffffffffffffffffffffffffffffffff169050816000806101000a81548173ffffffffffffffffffffffffffffffffffffffff021916908373ffffffffffffffffffffffffffffffffffffffff1602179055508173ffffffffffffffffffffffffffffffffffffffff168173ffffffffffffffffffffffffffffffffffffffff167f8be0079c531659141344cd1fd0a4f28419497f9722a3daafe3b4186f6b6457e060405160405180910390a35050565b6002600154036123fb576040517f3ee5aeb500000000000000000000000000000000000000000000000000000000815260040160405180910390fd5b6002600181905550565b60018081905550565b600033905090565b6040518060c00160405280600073ffffffffffffffffffffffffffffffffffffffff168152602001606081526020016060815260200160608152602001606081526020016000151581525090565b8280548282559060005260206000209081019282156124ac579160200282015b828111156124ab57825182908161249b91906137f7565b5091602001919060010190612484565b5b5090506124b9919061250a565b5090565b8280548282559060005260206000209081019282156124f9579160200282015b828111156124f85782518255916020019190600101906124dd565b5b509050612506919061252e565b5090565b5b8082111561252a5760008181612521919061254b565b5060010161250b565b5090565b5b8082111561254757600081600090555060010161252f565b5090565b5080546125579061339a565b6000825580601f106125695750612588565b601f016020900490600052602060002090810190612587919061252e565b5b50565b600082825260208201905092915050565b7f436f6e747261637420646f6573206e6f74206163636570742045544800000000600082015250565b60006125d2601c8361258b565b91506125dd8261259c565b602082019050919050565b60006020820190508181036000830152612601816125c5565b9050919050565b6000604051905090565b600080fd5b600080fd5b600073ffffffffffffffffffffffffffffffffffffffff82169050919050565b60006126478261261c565b9050919050565b6126578161263c565b811461266257600080fd5b50565b6000813590506126748161264e565b92915050565b6000602082840312156126905761268f612612565b5b600061269e84828501612665565b91505092915050565b60008115159050919050565b6126bc816126a7565b81146126c757600080fd5b50565b6000813590506126d9816126b3565b92915050565b600080604083850312156126f6576126f5612612565b5b600061270485828601612665565b9250506020612715858286016126ca565b9150509250929050565b6000819050919050565b6127328161271f565b811461273d57600080fd5b50565b60008135905061274f81612729565b92915050565b6000806040838503121561276c5761276b612612565b5b600061277a85828601612740565b925050602061278b85828601612665565b9150509250929050565b6000602082840312156127ab576127aa612612565b5b60006127b984828501612740565b91505092915050565b6127cb8161263c565b82525050565b600081519050919050565b600082825260208201905092915050565b60005b8381101561280b5780820151818401526020810190506127f0565b60008484015250505050565b6000601f19601f8301169050919050565b6000612833826127d1565b61283d81856127dc565b935061284d8185602086016127ed565b61285681612817565b840191505092915050565b600081519050919050565b600082825260208201905092915050565b6000819050602082019050919050565b60006128998383612828565b905092915050565b6000602082019050919050565b60006128b982612861565b6128c3818561286c565b9350836020820285016128d58561287d565b8060005b8581101561291157848403895281516128f2858261288d565b94506128fd836128a1565b925060208a019950506001810190506128d9565b50829750879550505050505092915050565b600081519050919050565b600082825260208201905092915050565b6000819050602082019050919050565b6129588161271f565b82525050565b600061296a838361294f565b60208301905092915050565b6000602082019050919050565b600061298e82612923565b612998818561292e565b93506129a38361293f565b8060005b838110156129d45781516129bb888261295e565b97506129c683612976565b9250506001810190506129a7565b5085935050505092915050565b6129ea816126a7565b82525050565b600060c083016000830151612a0860008601826127c2565b5060208301518482036020860152612a208282612828565b91505060408301518482036040860152612a3a8282612828565b91505060608301518482036060860152612a5482826128ae565b91505060808301518482036080860152612a6e8282612983565b91505060a0830151612a8360a08601826129e1565b508091505092915050565b60006020820190508181036000830152612aa881846129f0565b905092915050565b600080fd5b600080fd5b600080fd5b60008083601f840112612ad557612ad4612ab0565b5b8235905067ffffffffffffffff811115612af257612af1612ab5565b5b602083019150836001820283011115612b0e57612b0d612aba565b5b9250929050565b60008083601f840112612b2b57612b2a612ab0565b5b8235905067ffffffffffffffff811115612b4857612b47612ab5565b5b602083019150836020820283011115612b6457612b63612aba565b5b9250929050565b60008060008060008060608789031215612b8857612b87612612565b5b600087013567ffffffffffffffff811115612ba657612ba5612617565b5b612bb289828a01612abf565b9650965050602087013567ffffffffffffffff811115612bd557612bd4612617565b5b612be189828a01612abf565b9450945050604087013567ffffffffffffffff811115612c0457612c03612617565b5b612c1089828a01612b15565b92509250509295509295509295565b612c288161271f565b82525050565b6000602082019050612c436000830184612c1f565b92915050565b612c52816126a7565b82525050565b6000602082019050612c6d6000830184612c49565b92915050565b60008083601f840112612c8957612c88612ab0565b5b8235905067ffffffffffffffff811115612ca657612ca5612ab5565b5b602083019150836020820283011115612cc257612cc1612aba565b5b9250929050565b6000819050919050565b612cdc81612cc9565b8114612ce757600080fd5b50565b600081359050612cf981612cd3565b92915050565b60008060008060608587031215612d1957612d18612612565b5b6000612d2787828801612740565b945050602085013567ffffffffffffffff811115612d4857612d47612617565b5b612d5487828801612c73565b93509350506040612d6787828801612cea565b91505092959194509250565b6000604082019050612d886000830185612c1f565b612d956020830184612c1f565b9392505050565b60008060408385031215612db357612db2612612565b5b6000612dc185828601612740565b9250506020612dd285828601612740565b9150509250929050565b612de581612cc9565b82525050565b6000602082019050612e006000830184612ddc565b92915050565b612e0f8161263c565b82525050565b6000602082019050612e2a6000830184612e06565b92915050565b600080600080600060608688031215612e4c57612e4b612612565b5b6000612e5a88828901612740565b955050602086013567ffffffffffffffff811115612e7b57612e7a612617565b5b612e8788828901612abf565b9450945050604086013567ffffffffffffffff811115612eaa57612ea9612617565b5b612eb688828901612abf565b92509250509295509295909350565b6000604082019050612eda6000830185612e06565b612ee76020830184612c1f565b9392505050565b600082825260208201905092915050565b6000612f0a82612923565b612f148185612eee565b9350612f1f8361293f565b8060005b83811015612f50578151612f37888261295e565b9750612f4283612976565b925050600181019050612f23565b5085935050505092915050565b60006020820190508181036000830152612f778184612eff565b905092915050565b60008060408385031215612f9657612f95612612565b5b6000612fa485828601612740565b9250506020612fb585828601612cea565b9150509250929050565b6000612fca826127d1565b612fd4818561258b565b9350612fe48185602086016127ed565b612fed81612817565b840191505092915050565b600060808201905061300d6000830187612e06565b818103602083015261301f8186612fbf565b905081810360408301526130338185612fbf565b90506130426060830184612c49565b95945050505050565b6000819050919050565b600061307061306b6130668461261c565b61304b565b61261c565b9050919050565b600061308282613055565b9050919050565b600061309482613077565b9050919050565b6130a481613089565b82525050565b60006020820190506130bf600083018461309b565b92915050565b6000815190506130d481612729565b92915050565b6000602082840312156130f0576130ef612612565b5b60006130fe848285016130c5565b91505092915050565b7f496e73756666696369656e7420746f6b656e2062616c616e636520746f20627560008201527f726e000000000000000000000000000000000000000000000000000000000000602082015250565b600061316360228361258b565b915061316e82613107565b604082019050919050565b6000602082019050818103600083015261319281613156565b9050919050565b6000815190506131a8816126b3565b92915050565b6000602082840312156131c4576131c3612612565b5b60006131d284828501613199565b91505092915050565b7f546f6b656e207472616e7366657220746f206275726e2061646472657373206660008201527f61696c6564000000000000000000000000000000000000000000000000000000602082015250565b600061323760258361258b565b9150613242826131db565b604082019050919050565b600060208201905081810360008301526132668161322a565b9050919050565b7f5a65726f20616464726573730000000000000000000000000000000000000000600082015250565b60006132a3600c8361258b565b91506132ae8261326d565b602082019050919050565b600060208201905081810360008301526132d281613296565b9050919050565b7f4f6e6c792063616d706169676e206f776e65722063616e206d6f64696679206360008201527f616d706169676e20696e666f726d6174696f6e73000000000000000000000000602082015250565b600061333560348361258b565b9150613340826132d9565b604082019050919050565b6000602082019050818103600083015261336481613328565b9050919050565b7f4e487b7100000000000000000000000000000000000000000000000000000000600052602260045260246000fd5b600060028204905060018216806133b257607f821691505b6020821081036133c5576133c461336b565b5b50919050565b7f4f7074696f6e73206d757374206265206d6f7265207468616e206f6e6520616e60008201527f6420736d616c6c6572207468616e203500000000000000000000000000000000602082015250565b600061342760308361258b565b9150613432826133cb565b604082019050919050565b600060208201905081810360008301526134568161341a565b9050919050565b7f4e487b7100000000000000000000000000000000000000000000000000000000600052604160045260246000fd5b61349582612817565b810181811067ffffffffffffffff821117156134b4576134b361345d565b5b80604052505050565b60006134c7612608565b90506134d3828261348c565b919050565b600067ffffffffffffffff8211156134f3576134f261345d565b5b602082029050602081019050919050565b600080fd5b600067ffffffffffffffff8211156135245761352361345d565b5b61352d82612817565b9050602081019050919050565b82818337600083830152505050565b600061355c61355784613509565b6134bd565b90508281526020810184848401111561357857613577613504565b5b61358384828561353a565b509392505050565b600082601f8301126135a05761359f612ab0565b5b81356135b0848260208601613549565b91505092915050565b60006135cc6135c7846134d8565b6134bd565b905080838252602082019050602084028301858111156135ef576135ee612aba565b5b835b8181101561363657803567ffffffffffffffff81111561361457613613612ab0565b5b808601613621898261358b565b855260208501945050506020810190506135f1565b5050509392505050565b600061364d3684846135b9565b905092915050565b60008190508160005260206000209050919050565b60006020601f8301049050919050565b600082821b905092915050565b6000600883026136b77fffffffffffffffffffffffffffffffffffffffffffffffffffffffffffffffff8261367a565b6136c1868361367a565b95508019841693508086168417925050509392505050565b60006136f46136ef6136ea8461271f565b61304b565b61271f565b9050919050565b6000819050919050565b61370e836136d9565b61372261371a826136fb565b848454613687565b825550505050565b600090565b61373761372a565b613742818484613705565b505050565b5b818110156137665761375b60008261372f565b600181019050613748565b5050565b601f8211156137ab5761377c81613655565b6137858461366a565b81016020851015613794578190505b6137a86137a08561366a565b830182613747565b50505b505050565b600082821c905092915050565b60006137ce600019846008026137b0565b1980831691505092915050565b60006137e783836137bd565b9150826002028217905092915050565b613800826127d1565b67ffffffffffffffff8111156138195761381861345d565b5b613823825461339a565b61382e82828561376a565b600060209050601f831160018114613861576000841561384f578287015190505b61385985826137db565b8655506138c1565b601f19841661386f86613655565b60005b8281101561389757848901518255600182019150602085019450602081019050613872565b868310156138b457848901516138b0601f8916826137bd565b8355505b6001600288020188555050505b505050505050565b7f4e487b7100000000000000000000000000000000000000000000000000000000600052601160045260246000fd5b60006139038261271f565b91507fffffffffffffffffffffffffffffffffffffffffffffffffffffffffffffffff8203613935576139346138c9565b5b600182019050919050565b600061394b8261271f565b91506139568361271f565b925082820390508181111561396e5761396d6138c9565b5b92915050565b6000613980838561258b565b935061398d83858461353a565b61399683612817565b840190509392505050565b600082825260208201905092915050565b6000819050919050565b60006139c883856127dc565b93506139d583858461353a565b6139de83612817565b840190509392505050565b60006139f68484846139bc565b90509392505050565b600080fd5b600080fd5b600080fd5b60008083356001602003843603038112613a2b57613a2a613a09565b5b83810192508235915060208301925067ffffffffffffffff821115613a5357613a526139ff565b5b600182023603831315613a6957613a68613a04565b5b509250929050565b6000602082019050919050565b6000613a8a83856139a1565b935083602084028501613a9c846139b2565b8060005b87811015613ae2578484038952613ab78284613a0e565b613ac28682846139e9565b9550613acd84613a71565b935060208b019a505050600181019050613aa0565b50829750879450505050509392505050565b600060a0820190508181036000830152613b0f818a8c613974565b90508181036020830152613b2481888a613974565b90508181036040830152613b39818688613a7e565b90508181036060830152613b4d8185612eff565b9050613b5c6080830184612c49565b9998505050505050505050565b7f43616c6c6572206973206e6f7420617574686f72697a656420746f2075706c6f60008201527f6164000000000000000000000000000000000000000000000000000000000000602082015250565b6000613bc560228361258b565b9150613bd082613b69565b604082019050919050565b60006020820190508181036000830152613bf481613bb8565b9050919050565b7f566f74696e672063616d706169676e20646f6573206e6f74206578697374206f60008201527f72206973206e6f74206163746976650000000000000000000000000000000000602082015250565b6000613c57602f8361258b565b9150613c6282613bfb565b604082019050919050565b60006020820190508181036000830152613c8681613c4a565b9050919050565b7f4475706c69636174656420766f74696e6720726573756c7420666f756e642100600082015250565b6000613cc3601f8361258b565b9150613cce82613c8d565b602082019050919050565b60006020820190508181036000830152613cf281613cb6565b9050919050565b7f496e76616c696420726573756c7473206c656e67746800000000000000000000600082015250565b6000613d2f60168361258b565b9150613d3a82613cf9565b602082019050919050565b60006020820190508181036000830152613d5e81613d22565b9050919050565b7f4e487b7100000000000000000000000000000000000000000000000000000000600052603260045260246000fd5b6000613d9f8261271f565b9150613daa8361271f565b9250828201905080821115613dc257613dc16138c9565b5b92915050565b600081549050919050565b60008190508160005260206000209050919050565b60008160001c9050919050565b6000819050919050565b6000613e12613e0d83613de8565b613df5565b9050919050565b6000613e258254613dff565b9050919050565b6000600182019050919050565b6000613e4482613dc8565b613e4e8185612eee565b9350613e5983613dd3565b8060005b83811015613e9157613e6e82613e19565b613e78888261295e565b9750613e8383613e2c565b925050600181019050613e5d565b5085935050505092915050565b60006020820190508181036000830152613eb88184613e39565b905092915050565b600082905092915050565b613ed58383613ec0565b67ffffffffffffffff811115613eee57613eed61345d565b5b613ef8825461339a565b613f0382828561376a565b6000601f831160018114613f325760008415613f20578287013590505b613f2a85826137db565b865550613f92565b601f198416613f4086613655565b60005b82811015613f6857848901358255600182019150602085019450602081019050613f43565b86831015613f855784890135613f81601f8916826137bd565b8355505b6001600288020188555050505b50505050505050565b600081549050919050565b60008190508160005260206000209050919050565b60008154613fc88161339a565b613fd281866127dc565b94506001821660008114613fed576001811461400357614036565b60ff198316865281151560200286019350614036565b61400c85613655565b60005b8381101561402e5781548189015260018201915060208101905061400f565b808801955050505b50505092915050565b600061404b8383613fbb565b905092915050565b6000600182019050919050565b600061406b82613f9b565b61407581856139a1565b93508360208202850161408785613fa6565b8060005b858110156140c2578484038952816140a3858261403f565b94506140ae83614053565b925060208a0199505060018101905061408b565b50829750879550505050505092915050565b600060a08201905081810360008301526140ef81898b613974565b90508181036020830152614104818789613974565b905081810360408301526141188186614060565b9050818103606083015261412c8185613e39565b905061413b6080830184612c49565b98975050505050505050565b7f436f7374206d7573742062652067726561746572207468616e20300000000000600082015250565b600061417d601b8361258b565b915061418882614147565b602082019050919050565b600060208201905081810360008301526141ac81614170565b9050919050565b6000815190506141c28161264e565b92915050565b6000602082840312156141de576141dd612612565b5b60006141ec848285016141b3565b91505092915050565b7f5573657220686173206e6f206368616e636520746f20766f7465000000000000600082015250565b600061422b601a8361258b565b9150614236826141f5565b602082019050919050565b6000602082019050818103600083015261425a8161421e565b9050919050565b7f4e6f7420656e6f75676820746f6b656e2062616c616e63650000000000000000600082015250565b600061429760188361258b565b91506142a282614261565b602082019050919050565b600060208201905081810360008301526142c68161428a565b9050919050565b60006060820190506142e26000830186612e06565b6142ef6020830185612e06565b6142fc6040830184612c1f565b949350505050565b7f546f6b656e207472616e73666572206661696c65640000000000000000000000600082015250565b600061433a60158361258b565b915061434582614304565b602082019050919050565b600060208201905081810360008301526143698161432d565b905091905056fea264697066735822122071308e8fe73df1125da37f86518bf8c1cb80dd3cae6262a183e8640c83ef601664736f6c63430008180033",
  "linkReferences": {},
  "deployedLinkReferences": {}
}